:020000040800F2
:10000000A0160020DD010008B71F0008A514000895
:10001000B51F00086D0200088D26000800000000D2
:100020000000000000000000000000004501000882
:100030002F0300080000000089010008F1210008DA
:10004000F7010008F7010008F7010008F7010008B0
:10005000F7010008F7010008F7010008F7010008A0
:10006000F7010008F7010008F7010008F701000890
:10007000F7010008F7010008ED020008F902000886
:10008000F7010008F7010008F7010008F701000870
:10009000F7010008F7010008F7010008F701000860
:1000A000F7010008F7010008F7010008F701000850
:1000B000F7010008F7010008F7010008F701000840
:1000C000F7010008F7010008F7010008F701000830
:1000D000F701000831260008F7010008F7010008C1
:1000E00031030008F7010008F7010008F7010008D4
:1000F000F7010008F7010008F7010008F701000800
:10010000F7010008F7010008F7010008F7010008EF
:10011000F7010008F7010008F7010008F7010008DF
:10012000F7010008F7010008F7010008F7010008CF
:10013000DFF80CD000F088F800480047C92A000812
:10014000A0160020224B19680868B0E8F00F80F371
:100150000988BFF36F8F4FF0000080F311884EF0D5
:100160000D0E70470000000006480068006880F32C
:10017000088862B661B6BFF34F8FBFF36F8F00DFA1
:1001800000BF00BF08ED00E0EFF30980BFF36F8F01
:100190000F4B1A6820E9F00F106008B54FF05000BF
:1001A00080F31188BFF34F8FBFF36F8F03F082F995
:1001B0004FF0000080F31188BDE808401968086816
:1001C000B0E8F00F80F30988BFF36F8F704700BF6E
:1001D00040000020EFF3058070470000064880478C
:1001E00006480047FEE7FEE7FEE7FEE7FEE7FEE71C
:1001F000FEE7FEE7FEE7FEE74D22000831010008BA
:1002000040EA01039B0703D009E008C9121F08C098
:10021000042AFAD203E011F8013B00F8013B521E18
:10022000F9D27047D2B201E000F8012B491EFBD28F
:1002300070470022F6E710B513460A4604461946F1
:10024000FFF7F0FF204610BD064C074D06E0E068C2
:1002500040F0010394E8070098471034AC42F6D30D
:10026000FFF76AFFBC500008DC500008FEE7000002
:10027000F0B587B00F4604461E4615461C21684659
:10028000FFF7D7FF55208DF80000AA208DF8010058
:100290008DF80450280A8DF8050004208DF806001A
:1002A00000208DF807008DF8024008208DF80370BB
:1002B00000226946B35C0B54401C521C1728F9DD20
:1002C00000200A5C401C224494B21A28F9DB8DF805
:1002D0001840200A8DF81900FF231A22024801F065
:1002E00083F807B0F0BD0000A0000020014800F036
:1002F000D5B8000024010020014800F0CFB800006C
:10030000E000002030B590F840500124AC40C56BAF
:100310006C60046863604368102B036803D09960C5
:100320000068C26030BD9A600068C16030BD70472F
:100330004FF4804000F060BA704701680A6822F00C
:100340000E020A6001680A6822F001020A6090F851
:100350004020C36B012101FA02F25A6080F821109B
:10036000002180F820100846704700002DE9F05F5A
:1003700090F821100024022903D004218163012474
:1003800085E001680A6822F00E020A6001680A68C6
:1003900022F001020A603F4E3E4FB215DFF8F4C072
:1003A000DFF8F090DFF8ECA0DFF8E8B0DFF8E4E089
:1003B0000168783F13011502ACF1640CA9F15009F2
:1003C000AAF13C0AABF1280BAEF1140E4FF48018E1
:1003D000B14227D9B9420ED0614512D049451DD04E
:1003E000514518D0594518D0714501D1424615E004
:1003F000294EB14201D1012210E0274E1436B142FC
:1004000001D110220AE0244E2836B14206D0224AF9
:100410003C32914201D11A4600E02A461E49091F8A
:100420000A602BE0B94213D0614517D0494522D06C
:1004300051451DD059451DD0714501D142461AE0A4
:10044000B14202D14FF0807215E0134EB14201D19A
:10045000012210E0104E1436B14201D110220AE000
:100460000D4E2836B14206D00B4A3C32914201D1A2
:100470001A4600E02A46074980394A60012180F87F
:100480002110002180F82010416B01B188472046DF
:10049000BDE8F09F80000240080402402DE9F05FB3
:1004A000C16B0A6801680B68046C4FF0040808FA15
:1004B00004F8844D844E854FDFF814C2DFF814929F
:1004C000DFF814A2DFF814B2DFF814E218EA020F22
:1004D00065D05FEA437862D50A68920603D40A6859
:1004E00022F004020A60DFF8F0814FF480620168B4
:1004F00008F1140813011402414524D9A9420DD072
:10050000B1420FD0B9421AD0614515D0494515D036
:10051000514501D1120312E0594501D104220EE0E8
:10052000714501D140220AE06D4D1435A94206D033
:100530006B4A2832914201D11A4600E022466749AF
:10054000091F0A6029E0A94213D0B14215D0B9426F
:1005500020D061451BD049451BD0514502D14FF4F5
:10056000800217E0414502D14FF0806212E0594508
:1005700001D104220EE0714501D140220AE0584D1C
:100580001435A94206D0564A2832914201D11A4662
:1005900000E022464B4908394A60C16A71E04FF0D9
:1005A000020808FA04F818EA020F70D05FEA8378AC
:1005B0006DD50A68920606D40A6822F00A020A601B
:1005C000012180F82110DFF810814FF400720168DA
:1005D00008F1140813011402414524D9A9420DD091
:1005E000B1420FD0B9421AD0614515D0494515D056
:1005F000514501D1120312E0594501D102220EE00A
:10060000714501D120220AE0354D1435A94206D0AA
:10061000334A2832914201D11A4600E022462F493E
:10062000091F0A6029E0A94213D0B14215D0B9428E
:1006300020D061451BD049451BD0514502D14FF414
:10064000001217E0414502D14FF0007212E0594507
:1006500001D102220EE0714501D120220AE0204D95
:100660001435A94206D01E4A2832914201D11A46B9
:1006700000E02246134908394A60002180F8201022
:10068000816A00291CD0BDE8F05F0847FFE7082514
:10069000A540154214D01A0712D50A6822F00E029E
:1006A0000A6090F84020C36B012101FA02F25A60FF
:1006B000816380F82110002180F82010016BE0E7B1
:1006C000BDE8F09F080002401C00024030000240DC
:1006D00044000240580002406C00024008040240FE
:1006E0001C04024030B560B11A4B026814219A42D2
:1006F00009D2194B1344B3FBF1F189000164174986
:100700000AE0012030BD134B5B421344B3FBF1F10F
:10071000890001640F490839C163022180F8211062
:10072000136843F6F0718B43F0E901142143D0E9DB
:1007300002452C43214304692143446921438469D0
:10074000214319431160002141630122427701775F
:10075000084630BD08040240F8FFFDBF000002401B
:1007600070B5044690F82000002501280CD0012027
:1007700084F8200094F821600020012E06D084F82F
:1007800020000225284670BD022070BD022684F894
:100790002160A0632068066826F0010606602046F6
:1007A000FFF7B0FDE06A00282068016802D041F040
:1007B0000E0106E021F0040101602068016841F0AB
:1007C0000A0101602068016841F001010160D9E778
:1007D00070B5044600F01AF90546601C02D00448C2
:1007E0000078044400F012F9401BA042FAD370BD17
:1007F0003000002070470000044910B50A6802422A
:1008000002D00860FFF7F6FF10BD0000140401409D
:100810002DE9F84FDFF8B8A100220AF1040B1446C5
:1008200001274FF00F090BF1040E00BF0B6807FA08
:1008300004F52B40AB4274D1DFF898C14E68A6EBAB
:100840000C0866452BD00DDC032E34D005DC36B306
:10085000012E19D0022E2FD11BE0112E16D0122EF0
:100860002AD119E0B8F5881F19D006DCB8F5803F09
:1008700015D0B8F5801F1FD111E0B8F5001F0ED0BC
:10088000B8F5041F18D10AE0CA6815E0CA68121D3D
:1008900012E0CA6808320FE0CA680C320CE08A68BD
:1008A0002AB1012A4FF0080203D0456104E0042276
:1008B00002E0056100E00022FF2B01D8064601E0BE
:1008C00000F104064FEA840501D9A5F12005D6F808
:1008D00000C009FA05F82CEA080C02FA05F54CEA02
:1008E000050CC6F800C04D68ED006AD53A4DAE69FA
:1008F00046F00106AE61AD6924F0030605F001057E
:100900000095364D06EB050CDCF80850A6074FEABB
:10091000167809FA08F6B543314EB04202D10026E6
:100920001AE04EE02F4EB04201D1012614E02E4EC7
:10093000B04201D102260FE02C4EB04201D1032675
:100940000AE02B4EB04201D1042605E0294EB04208
:1009500001D1052600E0062606FA08F62E43CCF85B
:1009600008604D68DAF80060ED03554601D51E4376
:1009700000E09E432E604D68AD0305D5DBF80060B6
:100980001E43CBF8006004E0DBF800509D43CBF839
:1009900000504D68DEF80060ED02754601D51E433B
:1009A00000E09E432E604D68AD0205D5084D0C3524
:1009B0002E681E432E6004E0054E0C3635689D43BC
:1009C0003560641C102CFFF431AFBDE8F88F0000D7
:1009D000000401400000111000100240000001401E
:1009E00000080140000C01400010014000140140CB
:1009F00000180140001C01408068084000D0012020
:100A000070470AB1016170470904FBE7014880683B
:100A100070470000300000200248816802781144CD
:100A20008160704730000020074810B5016841F030
:100A300010010160032000F079F80F2000F006F8A3
:100A400000F024F8002010BD0020024070B50D4DCC
:100A500004464FF47A712878B1FBF0F00A4909682E
:100A6000B1FBF0F000F002FB48B9102C07D20022D5
:100A70002146501E00F03AF800206C6070BD012045
:100A800070BD0000300000203C0000200F4808B579
:100A9000816941F001018161816901F001010091E9
:100AA000C16941F08051C161C069002200F08050ED
:100AB00000900F21901E00F019F80548416821F0C0
:100AC000E06141F08061416008BD0000001002401B
:100AD0000000014000F01F02012191404009800008
:100AE00000F1E020C0F8001170470000F0B40E4B98
:100AF0001B680C46C3F30223C3F10705042D00D97C
:100B00000425191D072901D2002300E0DB1E012660
:100B100006FA05F1491E214099409E40761E164076
:100B20003143F0BC01F048BA0CED00E0064900F09A
:100B3000070208684FF6FF03184040EA0220034A04
:100B400010430860704700000CED00E00000FA055B
:100B50002DE9F047DFF8548105460E46D8F800002D
:100B600000F00700B0420CD2D8F8001021F00701C5
:100B70003143C8F80010D8F8000000F00700B04278
:100B80006FD128684A4C810712D5400703D56068A9
:100B900040F4E06060602878000703D5606840F4A6
:100BA000605060606068A96820F0F00008436060F1
:100BB0002878C00744D06868012816D02168022828
:100BC00016D0890700294CDA616821F0030101433E
:100BD0006160FFF71BFF6968074641F28830012911
:100BE0000ED00229814618D026E021688903E9E762
:100BF0008901E7E7FFF70AFFC11B494501D918E062
:100C000081466068C0F381000128F3D118E000BF7D
:100C1000FFF7FCFEC11B49450BD86068C0F381009B
:100C20000228F5D10CE000BFFFF7F0FEC11B4945DB
:100C300002D90320BDE8F087606810F00C0FF3D1F3
:100C4000D8F80010404601F00701B1420BD9016805
:100C500021F0070131430160006800F00700B04255
:100C600001D00120E6E72878400705D56068E968EB
:100C700020F4E060084360602878000706D56068CB
:100C8000296920F4605040EAC100606000F036F845
:100C90006168084AC1F30311515CC8400649086005
:100CA0000F20FFF7D3FE0020C4E700000020024021
:100CB00000100240945000083C0000200448054900
:100CC00000684968044AC1F30221515CC84070477A
:100CD0003C00002000100240A450000804480549D0
:100CE00000684968044AC1F3C221515CC84070479A
:100CF0003C00002000100240A450000812A185B062
:100D00000FC98DE80F0014A0144A006804905168C0
:100D1000134801F00C03042B10D0082B0ED1C1F3A3
:100D20008343C9031DF803000AD5516804AAC1F31F
:100D30004041515C0A4A5043B0FBF1F005B07047A6
:100D400008494843FAE700000203040506070809BA
:100D50000A0B0C0D0E0F10100102000000100240D3
:100D600000127A0000093D002DE9F84F0446007892
:100D7000B94DC00748D06868C0F38100012807D08A
:100D80006868C0F38100022809D16868C00306D5ED
:100D90002868800338D5606800286FD034E0606828
:100DA000B0F5803F0BD010B1B0F5A02F11D028685E
:100DB00020F480302860286820F4802002E0286831
:100DC00040F480302860606888B1FFF71FFE064657
:100DD00009E0286840F480202860F0E7FFF716FE5D
:100DE000801B642875D828688003F7D50CE0FFF7CE
:100DF0000DFE064605E000BFFFF708FE801B6428D5
:100E0000F0D828688003F7D42078944E80074FF0FC
:100E100001094FF000083BD5686810F00C0F07D0AF
:100E20006868C0F38100022809D16868C00306D44D
:100E30002868800714D5206901281FD110E0206997
:100E4000B0B1C6F80090FFF7E1FD074605E000BF2E
:100E5000FFF7DCFDC01B0228C4D828688007F7D53F
:100E60002868616920F0F80040EAC10028600FE0BE
:100E7000C6F80080FFF7CAFD074606E0E9E000BFBC
:100E8000FFF7C4FDC01B022823D828688007F7D4C9
:100E9000207800072CD57248A169D9B1C0F800901C
:100EA000FFF7B4FD074604E0FFF7B0FDC01B0228C2
:100EB0000FD8686A8007F7D56A484FF4FA5100687E
:100EC000B0FBF1F0009000BF0098411E0091FAD2F3
:100ED0000EE080E0C0F80080FFF798FD074604E0D0
:100EE000FFF794FDC01B022875D8686A8007F7D405
:100EF0002078400760D5E8690027C00008D4E86979
:100F000040F08050E861E869012700F080500090CF
:100F100055480168C90513D40168834641F48071BE
:100F20000160FFF773FD824606E000BFFFF76EFD2C
:100F3000A0EB0A0064284ED8DBF80000C005F5D508
:100F4000E06801280AD008B1052813D0286A20F0EB
:100F500001002862286A20F0040002E0286A40F0BC
:100F600001002862E06841F2883B98B1FFF74EFD2E
:100F700082460BE0286A40F004002862EEE700BFDA
:100F8000FFF744FDA0EB0A0159455AD8286A8007AB
:100F9000F6D50CE0FFF73AFD824605E0FFF736FD97
:100FA000A0EB0A0159454CD8286A8007F6D41FB136
:100FB000E86920F08050E861E06988B36968C1F3AE
:100FC0008101022945D00228C6F8608004D0FFF7CD
:100FD0001DFD044638E034E0FFF718FD074604E045
:100FE000FFF714FDC01B02282BD828688001F7D416
:100FF000206AB0F5803F05D16868A16820F4003010
:1010000008436860D4E908010843696821F4741151
:1010100008436860C6F86090FFF7F8FC044606E0F5
:1010200015E000BFFFF7F2FC001B022809D8286872
:101030008001F7D50BE000BFFFF7E8FC001B02289A
:1010400002D90320BDE8F88F28688001F4D400207D
:10105000F8E70120F6E700000010024000004242DD
:10106000800442423C0000200070004010B5401E49
:10107000B0F1807F01D3012010BD4FF0E02460610A
:101080000F21601700F098FF0020A0610720206169
:10109000002010BD10B504460068416994F839205D
:1010A000C1F3C011212A0BD151B1416921F0800156
:1010B0004161206B08B1FFF740F9204601F048F983
:1010C0002068416994F83A20C1F38011222A0BD19B
:1010D00051B1416921F040014161606B08B1FFF7F6
:1010E0002CF9204601F026F9002010BD70470000C1
:1010F00070B5026804461068D168536910F00F0F8C
:1011000050D003F0010501F4907635435DD0C2075D
:1011100005D0CA0503D5E26B42F00102E263420743
:1011200005D5DA0703D0E26B42F00202E2638207E0
:1011300005D5DA0703D0E26B42F00402E26302074E
:1011400005D5DA0703D0E26B42F00802E263E26BF6
:10115000002A33D0800604D5880602D5204601F047
:1011600000F920684069E16BC0F38010090700D4E2
:1011700028B3204601F0DEF82068416949061AD5F7
:10118000416921F040014161606BA0B11B4941639D
:10119000606BFFF7EBF8002810D0606B416BBDE887
:1011A00070400847830610D58B060ED52046BDE853
:1011B000704001F0D6B82046FFF798FF70BD20467A
:1011C000FFF794FF0020E06370BD030606D50B0611
:1011D00004D52046BDE8704001F0C6B94006F3D5FD
:1011E0004806F1D5D168204621F04001D160202188
:1011F00084F8391000F055F970BD00009522000800
:1012000070B5040004D094F83900002510B106E050
:10121000012070BD84F83850204600F023F82420C7
:1012200084F839002068C16821F40051C16020466B
:1012300001F0E2F82068016921F490410161206821
:10124000416921F02A0141612068C16841F40051DF
:10125000C160E563202084F8390084F83A0000205A
:1012600070BD00002DE9F04186B0002406460094D0
:1012700001940294039400682F49884258D12F4862
:10128000816941F480418161816901F48041049167
:10129000816941F0040181618069294D00F00400F9
:1012A00004904FF4007000900220019003200390FE
:1012B00069462846FFF7ACFA2815CDE900046946CF
:1012C00028460294FFF7A4FA1F4D1E484FF08008ED
:1012D000C5E90004C5E902482C614FF440576C6130
:1012E000C5E906472846FFF7FDF908B1FFF724F8DE
:1012F00075636E62144D13484435143801C51020CF
:10130000A5E81101104845F8104944306C61C5E961
:101310000647FFF7E7F908B1FFF70EF8356300223B
:10132000052125206E62FFF7E1FB2520FFF7D2FBA8
:1013300006B0BDE8F0810000003801400010024016
:101340000008014058000240E0000020F8B50446C3
:1013500090F83A0020283CD1C1B3BAB394F83800D1
:10136000012836D0012084F83800A162A28500252A
:10137000E563222084F83A00636B17489862636B38
:101380001648D862636B16481863606B1346456352
:101390000846666B216802463046091DFFF7E0F9F2
:1013A000206801684168009184F83850C16841F4B0
:1013B0008071C1602068416941F00101416120688C
:1013C000416941F0400141610020F8BDFFE7012083
:1013D000FBE70220F9E70000EF2200082B230008BA
:1013E000A5220008704770472DE9F843044690F89D
:1013F00039001F4616460D46202850D1A5B19EB192
:1014000094F8380001284AD0012084F838004FF0C1
:101410000008C4F83C80212084F83900FFF7F6FA70
:10142000A6848146E68426E00120BDE8F883E08CAE
:10143000401EE084A0684B46B0F5805F4FF000028C
:101440004FF080012046009703D001F0BEF8E8B9C4
:101450000DE001F0BAF8C8B928882168C0F3080087
:101460004860206908B16D1C05E0AD1C03E02168EF
:1014700015F8010B4860E08C0028D8D14B460022BB
:1014800040212046009701F0A0F808B10320CCE7E6
:10149000202084F8390084F838800020C5E7022035
:1014A000C3E77047FEE70000F0B50F490646002489
:1014B00008884D8821464543204600F023FB00F074
:1014C00057FC0A494FF480774A15DFF824C080237F
:1014D00007E00F614A61CCF800604B610B610A6163
:1014E000641CAC42F5D3F0BD840100200010014023
:1014F0000C0C014070B40C49F0222C242A254FF426
:10150000A0732B2650B1012088710B804A800C817A
:101510004D818E8170BC002000F07CBA0020887163
:101520000A804B80F3E70000840100202DE9F74F8B
:10153000DFF8909082468B46B9F80A0000F006FC6E
:10154000214C4FF48077276165156561DFF87C8059
:101550004FEA1A21C8F800108026666126612561CD
:10156000276165610AF0FF01C8F800106661266115
:101570002561B9F80C0000F0E9FB276165614FEACD
:101580001B21C8F80010666126612561276165612D
:101590000BF0FF01C8F800106661266125616761E4
:1015A0006561B9F80810C8F8001066612661256108
:1015B000276165610298C8F80000666126612561AF
:1015C000BDE8FE8F84010020001001400C0C01409A
:1015D0002DE9FF4F1F4600980C46101A401C86B29A
:1015E0004FF48078124D4FF4007A4FF0800BDDF805
:1015F000349019E02146009800F084FA00F0B8FB1E
:10160000002051460B4B5A460AE000BFC5F8108037
:101610006961C3F800906A612A612961401C80B247
:10162000B042F3D3641CA4B2BC42E3D9BDE8FF8F3F
:10163000001001400C0C014070B53220FFF7C8F8D3
:101640000121002000F09AFB3220FFF7C1F80020B2
:1016500000F0D8F9D34C4FF6FF75FF28A08004D3D3
:10166000A84202D0B0F5134F76D1D32000F06EFB24
:1016700000F0A4F900F0A2F900F0A0F905EA0020BA
:10168000A08000F09BF9A1880843A0F51341A08039
:10169000413961D0BF2000F059FB00F08FF900F014
:1016A0008DF900F08BF900F089F905EA0020A0809F
:1016B00000F084F9A1880843A0F5D041A080043946
:1016C0004AD0D42000F042FB00F078F900F076F91F
:1016D00000F074F905EA0020A08000F06FF9A188FD
:1016E0000843A0F5A641A080103935D04FF45A40E8
:1016F00000F02CFB00F062F94FF45B4000F026FB99
:1017000000F05CF905EA0020A0804FF45C4000F096
:101710001DFB00F053F9A1880843A08045F2105149
:10172000B0F5004F7DD0884216D0A12000F00EFB0E
:1017300000F044F9A08000F041F905EA0020A08003
:1017400000F03CF9A1880843A0F5AE41A0806139C2
:1017500002D141F66310A080CF2000F0F7FA0020FC
:1017600000F0E2FAC12000F0DFFA302000F0DCFAED
:10177000ED2000F0EBFA642000F0D6FA032000F030
:10178000D3FA122000F0D0FA812000F0CDFAE82040
:1017900000F0DCFA852000F0C7FA102000F0C4FA4F
:1017A0007A2000F0C1FACB2000F0D0FA392000F006
:1017B000BBFA2C2000F0B8FA002000F0B5FA342073
:1017C00000F0B2FA022000F0AFFAF72000F0BEFA03
:1017D000202000F0A9FAEA2000F0B8FA002000F07A
:1017E000A3FA002000F0A0FAC02000F0AFFA1B20FE
:1017F00000F09AFAC12000F0A9FA012000F094FA52
:10180000C52000F0A3FA302000F08EFA302000F05E
:101810008BFAC72000F09AFAB72000F085FA36203C
:1018200000E0BCE000F092FA482000F07DFA3A2097
:1018300000F08CFA552000F077FAB12000F086FA1B
:10184000002000F071FA1A2000F06EFAB62000F0C5
:101850007DFA0A2000F068FAA22000F065FAF22072
:1018600000F074FA002000F05FFA262000F06EFA13
:10187000012000F059FAE02000F068FA0F2000F093
:1018800053FA2A2000F050FA282000F04DFA0820E0
:1018900000F04AFA0E2000F047FA082000F044FA5F
:1018A000542000F041FAA92000F03EFA432000F055
:1018B0003BFA0A2000F038FA0F2000F035FA002039
:1018C00000F032FA002000F02FFA002000F02CFA8D
:1018D000002000F029FAE12000F038FA002000F0A2
:1018E00023FA152000F020FA172000F01DFA072037
:1018F00000F01AFA112000F017FA062000F014FA8E
:101900002B2000F011FA562000F00EFA3C2000F0D7
:101910000BFA052000F008FA102000F005FA0F205D
:1019200000F002FA3F2000F0FFF93F2000F0FCF940
:101930000F2000F0F9F92B2000F008FA002000F049
:10194000F3F9002000F0F0F9012000F0EDF93F205C
:1019500000F0EAF92A2000F0F9F9002000F0E4F99B
:10196000002000F0E1F9002000F0DEF9EF2000F0A7
:10197000DBF9112000F0EAF97820FEF729FF292091
:1019800000F0E4F90020FFF7B5FD012291020648BE
:10199000FFF737F82846BDE87040FFF785BDA18006
:1019A000DAE6000084010020001001400246012018
:1019B00000E05043491EC9B2FBD2704770B50F4AD0
:1019C0004FF088301060131D18600C4C00200C3450
:1019D00020600B499015086145004D6140264E611D
:1019E000181D00680E6180B20D614FF03331116037
:1019F00019604FF6FF71216070BD0000000C0140BE
:101A00000010014000B500F0A1F95DF804EBFFF70C
:101A1000D5BF00002DE9F0470021082812D2DFE8E9
:101A200000F0110406080A0C0E1080210AE0402183
:101A300008E0C02106E0202104E0602102E0A021AE
:101A400000E0E021362000F099F9DFF8ACA0BAF808
:101A50000A0000F07BF9294C4FF480772761651567
:101A60006561DFF89C804FF000094146C8F800909E
:101A7000802666612661256127616561C8F800904E
:101A800066612661256127616561BAF80000401E24
:101A900002120A6066612661256127616561C1B233
:101AA000C8F80010666126612561BAF80C0000F0E4
:101AB0004DF927616561C8F800906661266125616E
:101AC00027616561C8F8009066612661256127611C
:101AD0006561BAF80200401E0212C8F80020666173
:101AE0002661256127616561C1B2C8F80010666191
:101AF00026612561BDE8F0878401002000100140C7
:101B00000C0C01402DE9F04FDFF870B08246894699
:101B1000BBF80A0000F01AF9194C4FF480772761DE
:101B200065156561DFF85C804FEA1A21C8F800107E
:101B30008026666126612561276165610AF0FF01E3
:101B4000C8F80010666126612561BBF80C0000F042
:101B5000FDF8276165614FEA1921C8F80010666138
:101B6000266125612761656109F0FF01C8F8001051
:101B7000666126612561BDE8F08F000084010020C8
:101B8000001001400C0C01402DE9FF4F1D460C4692
:101B90008A46580700D0012000EBD5006908484369
:101BA000203A00F0FF09D0B20026DFF89CB0029086
:101BB00045E00C2D12D0102D15D0182D41D10298D2
:101BC000224900EBC00000BF01EB80004FF000088D
:101BD000875D38060CD51E4802880DE002981D4925
:101BE00000EB4000F0E71C49029801EB0010EDE724
:101BF0000D9828B91648428821460098FFF796FCB0
:101C00007806070E641CBBF80200A4B2A04218D9E3
:101C1000A4EB0A00A84209D100985446401C80B2A7
:101C20000090BBF8001081420BD906E008F10100DA
:101C300000F0FF08B8F1080FCBD3761CF6B24E4582
:101C4000B7D3BDE8FF8F00008401002038430008AF
:101C500020000020D4380008483D00082DE9FF4F3F
:101C600081B00026DDF838A01D46934681463446F3
:101C7000B0464FEA5A0727E0281B401EC1B20A208F
:101C8000FFF794FEBBFBF0F00A21B0FBF1F201FB81
:101C9000120026B9691E8C4201DA48B101263030A3
:101CA000C2B207FB049080B25346CDF8008006E034
:101CB00007FB049080B253462022CDF800800299A1
:101CC000FFF762FF641CE4B2AC42D5D305B0BDE8B7
:101CD000F08F2DE9F84F044600F0FF0910190D466A
:101CE000DDE90AB61FFA80F8581987B24FF0000AEA
:101CF00012E0444503D305EB0B004C4685B2BD42D0
:101D00000FD25B4629462046CDF800A0FFF73CFFE6
:101D100004EB5B0084B2761C3278A2F120005E28CE
:101D2000E7D9BDE8F88F000006494FF480720A61D8
:101D30004A154A61044B18608020486108610A61B5
:101D400070470000001001400C0C014006494FF4A0
:101D500080724A614A154A61044B186080204861CC
:101D600008610A6170470000001001400C0C01403E
:101D700001480089FFF7EABF8401002010B50C4636
:101D8000FFF7E4FF06484FF480710161411541619E
:101D9000044A1460802242610261016110BD0000AA
:101DA000001001400C0C01400D4808B5416941F09C
:101DB000010141614069002200F00100009005210D
:101DC0000E20FEF793FE0E20FEF784FE0022052172
:101DD0000F20FEF78BFEBDE808400F20FEF77ABE0D
:101DE0000010024010B58AB014220B496846FEF775
:101DF00007FA0021684600F002FF084C0649142249
:101E0000E060143105A8FEF7FBF9002105A800F0F9
:101E1000F6FE20610AB010BDAC38000800000020BA
:101E20002DE9F04385B000254C48009501950295B9
:101E30000395816941F020018161816901F02001F0
:101E40000491816941F004018161816901F004011B
:101E50000491816941F008018161816901F0080103
:101E60000491816941F0100181618069DFF8F0809F
:101E700000F010004FF6FF74049000222146404607
:101E8000FEF7BFFDDFF8DC904FF4FE56002231462E
:101E90004846FEF7B6FD009401AA0124022782E815
:101EA000B00069464046FEF7B3FC01AA009682E8FE
:101EB000B00069464846FEF7ABFC20200326CDE97A
:101EC0000005CDE9024669464846FEF7A1FC48F206
:101ED000010003968DE8A100DFF88C906946484622
:101EE000FEF796FC1C20CDE90004CDE902466946C8
:101EF0004846FEF78DFC0420CDE90004DFF86C8035
:101F0000CDE9024669464046FEF782FC2502CDE94E
:101F10000054CDE9024669464846FEF779FC0122A5
:101F200029464846FEF76DFD012204214046FEF792
:101F300068FDA00300900E48CDE9010769464846B8
:101F4000FEF766FC002205212820FEF7CFFD2820A1
:101F5000FEF7C0FD05B0BDE8F083000000100240B0
:101F6000000C014000100140000801400014014035
:101F70000000311010B50E4C0C480C2120604FF4BD
:101F8000E13060600020A060E060C4E90401A0616D
:101F9000E0612046FFF734F908B1FEF7CDF920687B
:101FA000C16841F01001C16010BD0000003801405F
:101FB000A0000020FEE770470907090E002806DA96
:101FC00000F00F0000F1E02080F8141D704700F1D0
:101FD000E02080F8001470472DE9FC410C4D089E6C
:101FE0002C88A4F5AA47AA3F06D0A4F5B447A53F7C
:101FF00008D00020BDE8FC81CDE9005600F022F8B1
:102000000120F7E7CDE9005600F004F80220F1E7DF
:102010006801002070B5DDE90445A6780670E07817
:102020000870A0881080208918800A202A18215C56
:10203000401C02F80A1C1728F8DD6420FEF7C8FBD4
:10204000002070BD70B5DDE90445A6780670E07823
:102050000870A0881080208918800A202A18215C26
:10206000401C02F80A1C1728F8DD70BD1CB5484951
:102070004FF478404FF6FF7608803046FFF714FAA9
:102080001024444D4FF4FA771EE043A0CDE9004000
:102090001023C82201217820FFF71BFE3846FEF7E7
:1020A00097FB3FA0CDE900401023C82201217820F2
:1020B000FFF70FFE3846FEF78BFB1423F0220121B9
:1020C00078200096FFF784FA01F072FB0028DCD03C
:1020D000374F4FF0805637A0CDE900401023C8227B
:1020E0003C210120FFF7F5FD34A0CDE9004010238D
:1020F000C82228210120FFF7ECFD32A0CDE90040E5
:102100001023C82214210120FFF7E3FD30A0CDE900
:10211000004001211023C8220846FFF7DAFD30A055
:10212000CDE900401023C82250210120FFF7D1FD46
:102130002DA0CDE900401023C82264210120FFF723
:10214000C8FDE878012807D11420FEF741FBE878A4
:10215000012801D100F04EFFA878012807D11420F2
:10216000FEF736FBA878012801D100F0CDFC687895
:10217000012807D11420FEF72BFB6878012801D134
:1021800000F07AFB3E60BFF34F8FBFF36F8FA2E783
:102190002000002000000020204572726F72210094
:1021A000506C6561736520436865636B2120000096
:1021B00004ED00E05369643A000000004469643AA9
:1021C000000000004572726F7220636F64653A0010
:1021D000436F6E6E6563742073746174653A0000BA
:1021E00053746174653A0000526573756C743A00FB
:1021F00010B5FEF711FCBDE8104000F0F6BC30B59C
:102200008FB028216846FEF714F814210AA8FEF7BB
:1022100010F801210804CDE90010002402940225E1
:102220000491CDE907504FF4E01009906846FEF79D
:102230009BFD0F20CDE90A056802CDE90C40022183
:102240000AA80E94FEF784FC0FB030BD0D4801685B
:1022500041F00101016041680B4A11404160016891
:102260000A4A11400160016821F48021016041683F
:1022700021F4FE0141604FF41F0181600449C00355
:1022800008607047001002400000FFF8FFFFF6FEF4
:1022900008ED00E010B5406A0021C185C184FEF759
:1022A00025FF10BD70B5446A2068406994F8391064
:1022B000C0F3C0100025212904D118B1E5842046BF
:1022C00000F046F82068406994F83A10C0F3801096
:1022D000222904D118B1E585204600F02BF8E06BE7
:1022E00040F01000E0632046FEF700FF70BD10B51F
:1022F0000146406A09680968890613D40021C1852E
:102300000168CA6822F48072CA6001684A6922F0D2
:1023100001024A6101684A6922F040024A612021B3
:1023200080F83A10FFF75EF810BD10B5406AFFF76D
:102330005AF810BD0168CA6822F49072CA60016838
:102340004A6922F001024A61202180F83A10704760
:102350000168CA6822F0C002CA60202180F83910E2
:10236000704710B590F83A10222901D0022010BD14
:102370008168B1F5805F11D00169002901681FD023
:10238000496801F07F03816A4A1C82620B70C18D2B
:10239000491E0904090CC18518D02BE00269816A25
:1023A000002A0268526805D0D2B20A80816A491CAC
:1023B0008162ECE7C2F308020A80816A891CF7E7B0
:1023C0004A68816A4B1C83620A70E0E70168CA6848
:1023D00022F02002CA600168CA6822F48072CA60D2
:1023E00001684A6922F001024A61202180F83A100E
:1023F000FEF7F8FF002010BD2DE9F041044600680B
:102400000169E26821F44051114301612169A0682A
:102410000843616908432168CA6841F20C639A4322
:102420000243CA6020684169A26921F440711143E6
:1024300041614C4920686425322688423CD1FEF730
:102440004DFC00EBC00101EB001061688900B0FB9E
:10245000F1F7FEF743FC00EBC00101EB00106168EF
:10246000B0468900B0FBF1F0B0FBF5F06FF0180159
:10247000484307EB800106EB0110B0FBF5F000F0DC
:10248000F006FEF72BFC00EBC00101EB00106168C9
:102490008900B0FBF1F0B0FBF5F006EB0016FEF79B
:1024A0001DFC00EBC00101EB001061688900B0FB6E
:1024B000F1F7FEF713FC3BE0FEF700FC00EBC00178
:1024C00001EB001061688900B0FBF1F7FEF7F6FB45
:1024D00000EBC00101EB00106168B0468900B0FB61
:1024E000F1F0B0FBF5F06FF01801484307EB800105
:1024F00006EB0110B0FBF5F000F0F006FEF7DEFB96
:1025000000EBC00101EB001061688900B0FBF1F045
:10251000B0FBF5F006EB0016FEF7D0FB00EBC001B8
:1025200001EB001061688900B0FBF1F7FEF7C6FB14
:1025300000EBC00101EB001061688900B0FBF1F015
:10254000B0FBF5F06FF01801484307EB800108EB92
:102550000110B0FBF5F0216800F00F0030448860F6
:10256000BDE8F0810038014090F83910212901D0F0
:10257000022070478168B1F5805F016A0BD04A1C68
:102580000262026809785160C18C491E0904090C75
:10259000C1840ED017E009880268C1F308015160B8
:1025A00001690029016A02D0491C0162ECE7891C1B
:1025B000FBE70168CA6822F08002CA600068C1684F
:1025C00041F04001C160002070472DE9F04198467C
:1025D00017460E460446069D1DE0681C1BD02DB113
:1025E000FEF714FAA0EB0800A84214D92068C168CD
:1025F00021F4D071C1602068416921F0010141617D
:10260000202084F8390084F83A00002084F838004B
:102610000320BDE8F0812068006836EA000004D09D
:102620000020B842D9D00020F3E70120F9E70000EC
:1026300038B5114811490068884217D10168C1F3C3
:10264000001199B10E4C0121617001684068009041
:102650000948FEF71FFD0B4800684068C0F11C00E8
:1026600020701C2208490448FEF770FEBDE838407F
:102670000148FEF73DBD0000A000002000380140E9
:102680001E000020E000002068010020FEE702E0BC
:1026900008C8121F08C1002AFAD1704770470020ED
:1026A00001E001C1121F002AFBD170477CB5102147
:1026B0002A48FDF7BEFD294810210E38FDF7B9FD67
:1026C0000021264B20220846FDF7D2FDC820FEF748
:1026D0007FF82248224B0E389A1E511E0090481E49
:1026E000FFF77AFC10254FF6FF71012810D00091FA
:1026F0006423F02250213220FEF76AFF19A0CDE9B1
:1027000000501023C82250213220FFF7E2FA7CBD8E
:10271000134C241F6088202801D1A08838B100956F
:102720000323A28814215020FFF798FA7CBD009162
:102730006423F02250213220FEF74AFF0EA0CDE99B
:1027400000501023C82250213220FFF7C2FA207A0D
:1027500000F02AF8A068401CA0607CBDA001002009
:10276000280000204163717569736974696F6E2078
:102770004661696C0000000041637175697369749A
:10278000696F6E20737563636573730010B5002104
:10279000044B25220846FDF76BFDBDE81040642080
:1027A000FEF716B8A00100207CB505461021294887
:1027B000FDF73FFD274810210E38FDF73AFD4FF693
:1027C000FF742823F022142155200094FEF700FF07
:1027D000204800210346057060220846FDF748FDA9
:1027E0004FF49670FDF7F4FF1A481B4B0E389A1EF3
:1027F000511E0090481EFFF7EFFB1025012808D05E
:102800006423F022502132200094FEF7E1FE13A051
:1028100016E01148001F4188602901D1818839B133
:1028200000958288042314215020FFF717FA7CBDFD
:102830006423F022502132200094FEF7C9FE0AA042
:10284000CDE900501023C82250213220FFF741FA71
:102850007CBD0000A00100202800002042756666B3
:102860006572204661696C00427566666572207308
:1028700075636365737300002DE9FC414FF6FF74C7
:102880002823F022142155200094FEF7A1FE1021E8
:102890003148FDF7CEFC304810210E38FDF7C9FC59
:1028A00000212D4B21220846FDF7E2FC3220FDF7E6
:1028B0008FFF2A4B284D9A1E0E3D511E481E009533
:1028C000FFF78AFB012818D1244E1027361F708885
:1028D000212802D12878012811D06423F022502128
:1028E00032200094FEF774FE1DA0CDE90070102385
:1028F000C82250213220FFF7ECF9BDE8FC816423A7
:10290000F022502132200094FEF762FE17A0CDE99C
:1029100000701023C82250213220FFF7DAF9FFF7A8
:10292000C5FE012811D14FF47A742046FDF750FFFF
:10293000FFF7BCFE022808D12046FDF749FFFFF74C
:10294000B5FE032801D10020B060C820FDF740FF8C
:10295000BDE8FC4100F0D8B8A0010020280000200C
:102960004E6F2066696E67657200000046696E678B
:10297000657220737563636573730000DFF858A098
:10298000164F0125164CDFF85C904FF4004B0026E3
:102990004FF0805820215046FEF72EF8A8B16670FF
:1029A00059463846FEF728F888B1A6700121384606
:1029B000FEF722F801280CD084F80360C9F80080E3
:1029C000BFF34F8FBFF36F8FE4E76570E8E7A57043
:1029D000ECE7E570F2E7000000100140000801405C
:1029E0000000002004ED00E07CB5054610212D48D4
:1029F000FDF71FFC2B4810210E38FDF71AFC294962
:102A000000200B460D7048708870C8704022014647
:102A1000FDF72EFC4FF4FA70FDF7DAFE224B214E43
:102A20009A1E0E3E511E481E0096FFF7D5FA10243E
:102A3000012812D04FF6FF7000906423F02250213D
:102A40003220FEF7C5FD19A0CDE900401023C822B1
:102A500050213220FFF73DF97CBD1348001F41880B
:102A6000402901D1818839B100940423828814213E
:102A70005020FFF7F3F87CBD0FA0CDE900401023F4
:102A8000C82250213220FFF724F904232A4664216A
:102A900032200094FFF7E2F8009404237278642156
:102AA000E6E70000A00100202800002053617665C1
:102AB000204661696C000000536176652073756380
:102AC0006365737300000000FDF7AEFFFFF797FB2F
:102AD000FFF7A6F9FFF768F9FFF74CFA1C22054942
:102AE0000548FEF733FCFEF7A7FDFFF77BF900F082
:102AF00077F8FEE768010020A000002001460020D2
:102B0000842900D0C81C70471CB510212B48FDF744
:102B100090FB2A4810210E38FDF78BFB2748002137
:102B20000346017041700321817000216122084633
:102B3000FDF79EFB4FF49670FDF74AFE1F48204BB1
:102B40000E389A1E511E0090481EFFF745FA1024B9
:102B5000012812D04FF6FF7000906423F02250211C
:102B60003220FEF735FD17A0CDE900401023C82222
:102B700050213220FFF7ADF81CBD1148001F4188DD
:102B8000612901D1818839B10094828804231421FC
:102B90005020FFF763F81CBD0DA0CDE900401023C5
:102BA000C82250213220FFF794F86420FDF710FE70
:102BB000BDE81C400320FFF717BF0000A001002064
:102BC000280000204D65726765204661696C000031
:102BD0004D657267652073756363657373000000EC
:102BE00010B500F02BFC002010BD10B500F00CFD5E
:102BF000012803D0BDE8104000F0C4BC10BD3EB5B4
:102C000004460D46B0F90800FFF778FF02A9CDE9A8
:102C10000001208A2B4682B2D4E9001000F0C8FCE3
:102C2000012801D000203EBD02983EBD2DE9F041B3
:102C3000054600F091FB2E4CA068401CA060206867
:102C40002C4F10B1606940B32DE02560A0680128C9
:102C500029D1002606EB860007EB800000F062FB1E
:102C6000761C072EF6D323488C3000F05BFB2148FE
:102C7000A03000F057FB1F48B43000F053FB1D4854
:102C8000C83000F04FFB1B48DC3000F04BFB19480C
:102C90008C3060631430A06305E02068E96AC06A84
:102CA000884200D82560606A401C6062E96A0120A1
:102CB000226988401043206101EB810007EB80000E
:102CC000291D00F03DFB00F067FB606900280CD077
:102CD0002068E96AC06A884207D207494FF08050ED
:102CE0000860BFF34F8FBFF36F8FBDE8F081000026
:102CF00040000020B001002004ED00E070B5114E4E
:102D0000114C17E000F0CEFB3068B8B100F0EEFCDB
:102D100000F022FBF068C568281D00F0F1FAA068F9
:102D2000401EA0606068401E606000F035FB2846D1
:102D300000F00CF860680028E4D170BD00F0D6FC0B
:102D4000F8E70000780200204000002010B504469B
:102D5000006B00F035FB2046BDE8104000F030BBB2
:102D600010484FF44061420706D0C01D0D4920F0C5
:102D70000700411AC1F540610B4A00230144C2E932
:102D800000030839103A21F0070111604B600B6015
:102D90000B1AC0E9001393604FF000405360D060FD
:102DA00070470000A00200208C000020074C4FF06C
:102DB0008056074DFFF7A2FF20680128FAD92E6040
:102DC000BFF34F8FBFF36F8FF4E70000B001002017
:102DD00004ED00E02DE9F0479A46DDE909848146DB
:102DE0006FF00303206B03EB82021044089D20F078
:102DF0000706700707D0502080F31188BFF34F8F6C
:102E0000BFF36F8FFEE723180A5C83F834200A5C57
:102E100012B1401C1028F6D3002784F84370072D08
:102E200000D30625E562C4E91157201D00F085FA9C
:102E300004F1180000F081FA2461C5F10700646212
:102E4000A061E76484F8507052464946304600F06D
:102E5000BFF82060B8F1000F01D0C8F80040BDE80D
:102E6000F087000030B5114900E011460A6882423F
:102E7000FBD34B685C18844203D140681844486017
:102E8000084643681C18944209D1084C103C246839
:102E9000A24209D052681A4442600A68126802606D
:102EA000814200D0086030BD0460F9E78C0000204A
:102EB0000648416B096829B1416BC968C96849680E
:102EC000816270474FF0FF31FAE7000040000020B8
:102ED00008484068401C4FF0500080F3118804D02F
:102EE000BFF34F8FBFF36F8FFEE7BFF34F8FBFF37B
:102EF0006F8FFEE7940000202DE9F0410546002782
:102F000000F0D0FA314E306808B9FFF729FFF068B9
:102F100005424BD1C5B3083568070ED005F0070050
:102F2000C0F108000544680707D0502080F31188DD
:102F3000BFF34F8FBFF36F8FFEE72DB370688542ED
:102F400034D82248103001460C6801E020460C4677
:102F50006168A94202D221680029F7D131688C4208
:102F600024D007682168016060680837411B102978
:102F70000FD96019420708D0502080F31188BFF3A1
:102F80004F8FBFF36F8FFEE710E041606560FFF782
:102F900069FF61687068401A7060B268904200D240
:102FA000B060F06801430020C4E9000100F09EFB1E
:102FB000780707D0502080F31188BFF34F8FBFF3FD
:102FC0006F8FFEE73846BDE8F08100007C000020EE
:102FD00010B5031F4FF080741C601B1F21F001010E
:102FE0001960191F024B0B60143940380A6010BD7C
:102FF000D12E00082DE9FC47FFF7C8FB4FF6FF76FE
:103000007823F022642132200096FEF7E1FA28238B
:10301000F022142155200096FEF7DAFA1021974885
:10302000FDF707F9954810210E38FDF702F9002148
:10303000924B21220846FDF71BF93220FDF7C8FB11
:103040008F4B8E4F9A1E0E3F511E481E0097FEF763
:10305000C3FF01287ED18A4D10242D1F68882128A6
:1030600002D13878012808D06423F0225021322080
:103070000096FEF7ADFA83A07FE06423F022502192
:1030800032200096FEF7A4FA81A0CDE9004010237B
:10309000C82250213220FEF71CFE10217748FDF790
:1030A000C8F8764810210E38FDF7C3F80021734B9D
:1030B00020220846FDF7DCF8C820FDF789FB704B9D
:1030C00000979A1E511E481EFEF786FF012808D061
:1030D0006423F022502132200096FEF779FA70A086
:1030E0004BE06888202801D1A88810B10323009400
:1030F00054E06423F022502132200096FEF768FA53
:103100006CA0CDE900401023C82250213220FEF7E8
:10311000E0FD2823F022142155200096FEF758FAEE
:1031200010215648FDF785F8544810210E38FDF758
:1031300080F84FF00009DFF844A1602253468AF876
:10314000009049464846FDF793F84FF4FA70FDF7B2
:103150003FFB00E019E04A4BB8469A1E511E481E3C
:103160000097FEF739FF012811D06423F022502187
:1031700032200096FEF72CFA53A0CDE90040102330
:10318000C82250213220FEF7A4FDBDE8FC876888E4
:10319000602801D1A88838B104230094AA8814219A
:1031A0005020FEF75BFDF0E76423F022502132202F
:1031B0000096FEF70DFA47A0CDE900401023C82283
:1031C00050213220FEF785FD10212C48FDF731F803
:1031D0002A4810210E38FDF72CF88AF800908AF85A
:1031E000019001218AF802108AF803908AF80440BD
:1031F00000214F468AF80590204B63220846FDF7D0
:1032000037F86420FDF7E4FA1D4BAF809A1E511E7B
:103210004746481ECDF80080FEF7DEFE012808D0A4
:103220006423F022502132200096FEF7D1F91FA02E
:10323000A3E76888632801D1A88878B100940423A3
:10324000AA8814215020FEF709FD6423F0225021A2
:1032500032200096FEF7BCF922A08EE700943A785F
:10326000042364213220FEF7F9FC00946421BA782B
:1032700004230846FEF7F2FC1DA07EE7A001002013
:10328000280000204E6F2066696E6765720000009E
:1032900046696E67657220737563636573730000BA
:1032A0004163717569736974696F6E204661696CF9
:1032B000000000004163717569736974696F6E2065
:1032C0007375636365737300427566666572204645
:1032D00061696C004275666665722073756363652B
:1032E00073730000566572696566204661696C00FB
:1032F0005665726965662073756363657373000054
:10330000D0E9013201699A60D0E901235A604A6824
:10331000824201D182684A60002202610868401E30
:103320000860704700F108014FF0FF32C0E9011258
:10333000C160016100210160704700210161704797
:1033400042684A6093688B60936859609160086135
:103350000168491C01607047502080F31188BFF359
:103360004F8FBFF36F8F0A494868401C486001289F
:103370000CD10848006810F0FF0F07D0502080F3F0
:103380001188BFF34F8FBFF36F8FFEE770470000C8
:103390009400002004ED00E00849486828B1401E70
:1033A000486001D180F311887047502080F3118864
:1033B000BFF34F8FBFF36F8FFEE700009400002034
:1033C00070B5002827D0144DA0F108046168E868A2
:1033D000014207D1502080F31188BFF34F8FBFF314
:1033E0006F8FFEE722683AB1502080F31188BFF357
:1033F0004F8FBFF36F8FFEE78143616000F052F89B
:1034000060686968084468602046FFF72BFDBDE8E6
:10341000704000F06BB970BD7C00002006484FF48E
:103420007A710068B0FBF1F14FF0E020491E416174
:1034300007210161704700003C0000201CB51548C1
:103440000024CDE900402346802213A1144800F057
:10345000AFF8012809D0401C1AD1502080F3118800
:10346000BFF34F8FBFF36F8FFEE7502080F31188BB
:10347000BFF34F8FBFF36F8F06484FF0FF312C38EB
:10348000816201214161C460BDE81C4000F040B888
:103490001CBD00006C00002049444C4500000000A9
:1034A000AD2D00080248016B491C01637047000004
:1034B000400000201448016B11B10121C161704727
:1034C0000021C1610169B1FA81F1C1F11F0101EB74
:1034D00081020E4951F822306BB101EB820101F1FA
:1034E00008034A6852684A609A4201D152684A60A9
:1034F000D16801607047502080F31188BFF34F8F6F
:10350000BFF36F8FFEE7000040000020B0010020F5
:103510001CB5194908780190FF20087008788DF8CB
:1035200000009DF80000154A00F0500010700720C0
:10353000906005E09DF800305B008DF80030401E83
:103540009DF800301B06F5D4000200F4E0609060A6
:10355000019808700A48016841F47001016001682F
:1035600041F070410160FFF759FF00205060FCF707
:10357000FBFD00201CBD000000E400E094000020E2
:1035800020ED00E010B5502080F31188BFF34F8F7D
:10359000BFF36F8F00F046F818B104494FF0805028
:1035A0000860002080F3118810BD000004ED00E0E9
:1035B0002DE9FF5F8346DDE90E87994616468A4668
:1035C0009000FFF799FC05001AD05420FFF794FCF7
:1035D000040012D025630021CDE90241CDE9008726
:1035E0004B46324651465846FFF7F4FB2046FFF75C
:1035F0001DFB012004B0BDE8F09F2846FFF7E0FE68
:103600004FF0FF30F6E700000548416919B1006B43
:1036100018B1002070470120704702207047000059
:10362000400000202DE9F0412E4C0027206B40B1D6
:10363000A069401CA061E06900B101273846BDE8DF
:10364000F081E668761CE66013D1606B006838B1E3
:10365000502080F31188BFF34F8FBFF36F8FFEE7C9
:10366000606BA16B6163A063206A401C2062FFF75E
:103670001FFCA06ADFF87080864209D3606B006887
:1036800080B1606BC068C568686886420DD2A06270
:103690002068C06A00EB800158F821000128CAD9CF
:1036A0000127C8E74FF0FF30F1E7281DFFF728FE9C
:1036B000A86A18B105F11800FFF722FEE86A012197
:1036C000226981401143216100EB800108EB8100F8
:1036D000291DFFF735FEE86A2168C96A8842CDD303
:1036E0000127CBE740000020B00100202DE9F04782
:1036F0002C4D00242746286B38B1FFF72DFE286B90
:10370000401E2863286B40B146E0502080F31188AA
:10371000BFF34F8FBFF36F8FFEE7A968224E0120E2
:10372000D1B3A6F1B40980463068E8B1F068C46846
:1037300004F11800FFF7E4FD201DFFF7E1FDE06A4A
:103740002A6908FA00F11143296100EB800109EBB5
:103750008100211DFFF7F4FDE06A2968C96A8842EB
:10376000E2D3C5F81C80DFE70CB1FFF7A1FBAC6921
:1037700044B14646FFF756FF00B1EE61641EF9D131
:103780000020A861E86938B10849012738070860B6
:10379000BFF34F8FBFF36F8FFFF7FEFD3846BDE8D5
:1037A000F0870000400000206402002004ED00E0EB
:1037B0007CB5FEF7EBFF10213148FCF73AFD002104
:1037C0002F4B01220846FCF753FD9620FDF700F829
:1037D0002C4B2B4E9A1E0E3E511E481E0096FEF795
:1037E000FBFB012801D000207CBD264D10242D1F9D
:1037F0006888012818D1A888B0B9009403232A78D2
:103800003C211E20FEF72AFA009403236A7828211F
:103810001E20FEF723FA1CA0CDE900401023C82289
:1038200001217820FEF755FA10211548FCF701FD1B
:103830001348042103460170012141700021022236
:103840000846FCF715FD9620FCF7C2FF0D4B0096CD
:103850009A1E511E481EFEF7BFFB0128C4D168887E
:103860000228C1D10CA0CDE900401023C82250216C
:103870003220FEF72EFA6420FCF7AAFF01207CBD5F
:10388000A001002028000020436F6E6E6563742045
:103890007375636365737300496E697469616C69FC
:1038A0007A6520737563636573730000AC5000081C
:1038B0006D200008000000000000000080000000F3
:1038C000B85000087D29000800000000000000003A
:1038D00004000000000000000000000000000000E4
:1038E000000000003F400000000000000000300029
:1038F000400030004000000009000BC03D000BC03C
:103900003D00090018C024407FE0224031800000C3
:10391000180024C01B000D803240018003801C4031
:1039200027401C800740004010006000000000009D
:10393000000000000000000000001F802040402028
:103940000000402020401F80000000000900060009
:103950001F80060009000000040004003F800400EE
:1039600004000000001000600000000000000000E3
:1039700004000400040004000400000000000040F3
:103980000000000000000000002001C00600380018
:10399000400000001F802040204020401F80000089
:1039A000000010403FC000400000000018C021404F
:1039B0002240244018400000108020402440244031
:1039C0001B80000002000D0011003FC001400000FC
:1039D0003C80244024402440238000001F80244059
:1039E00024403440038000003000200027C038000D
:1039F000200000001B802440244024401B80000045
:103A00001C0022C0224022401F8000000000000055
:103A100008400000000000000000000004600000FA
:103A200000000000000004000A0011002080404057
:103A300009000900090009000900000000004040D9
:103A4000208011000A0004001800200023402400F8
:103A5000180000001F802040274029401F40000020
:103A6000004007C039000F0001C0004020403FC0A7
:103A7000244024401B8000001F8020402040204024
:103A80003080000020403FC0204020401F800000C8
:103A900020403FC024402E4030C0000020403FC0A6
:103AA00024402E00300000000F00108020402240F3
:103AB0003380020020403FC0040004003FC020408B
:103AC000204020403FC020402040000000602020D7
:103AD00020203FC02000200020403FC024400B0099
:103AE00030C0204020403FC020400040004000C087
:103AF0003FC03C0003C03C003FC0000020403FC02E
:103B00000C4023003FC020001F8020402040204068
:103B10001F80000020403FC0244024001800000007
:103B20001F802140214020E01FA0000020403FC016
:103B30002440260019C0004018C0244024402240E0
:103B400031800000300020403FC0204030000000A5
:103B500020003F80004000403F80200020003E00C9
:103B600001C0070038002000380007C03C0007C033
:103B700038000000204039C0060039C02040000055
:103B80002000384007C0384020000000304021C0ED
:103B90002640384020C00000000000007FE04020A8
:103BA00040200000000070000C0003800040000076
:103BB0000000402040207FE00000000000002000C6
:103BC0004000200000000000001000100010001055
:103BD0000010001000000000400000000000000085
:103BE000000002800540054003C0004020003FC0A7
:103BF00004400440038000000000038004400440AF
:103C00000640000000000380044024403FC0004004
:103C10000000038005400540034000000000044010
:103C20001FC0244024402000000002E00550055041
:103C30000650042020403FC00440040003C0004060
:103C40000000044027C000400000000000100010E9
:103C5000041027E00000000020403FC001400700A2
:103C600004C00440204020403FC00040004000000D
:103C700007C0040007C0040003C00000044007C0E0
:103C80000440040003C000400000038004400440DE
:103C900003800000041007F004500440038000007B
:103CA000000003800440045007F00010044007C0E7
:103CB00002400400040000000000064005400540EA
:103CC00004C00000000004001F8004400040000009
:103CD000040007800040044007C0004004000700C3
:103CE00004C0018006000400060001C0070001C0F6
:103CF00006000000044006C0010006C004400000A9
:103D00000410071004E001800600040000000440D5
:103D100005C00640044000000000000004007BE0F5
:103D200040200000000000000000FFF00000000044
:103D3000000040207BE00400000000004000800004
:103D400040002000200040000000000000000000B3
:103D500000000000000000000000000000001FCC78
:103D6000000C0000000000000000080030006000AF
:103D70000800300060000000022003FC1E2002202A
:103D800003FC1E200220000000000E1811043FFF5B
:103D900010840C78000000000F0010840F3800C061
:103DA000077818840078000000780F8410C411246C
:103DB0000E9800E40084000808006800700000000D
:103DC000000000000000000000000000000007E00C
:103DD00018182004400200000000400220041818B7
:103DE00007E00000000000000240024001800FF0E8
:103DF00001800240024000000080008000800FF837
:103E000000800080008000000001000D000E000016
:103E10000000000000000000000000800080008022
:103E200000800080008000800000000C000C00007A
:103E30000000000000000000000000060018006004
:103E40000180060018002000000007F00808100498
:103E50001004080807F000000000080408041FFC14
:103E6000000400040000000000000E0C10141024D8
:103E7000104411840E0C000000000C1810041104F2
:103E8000110412880C700000000000E003200424DC
:103E900008241FFC0024000000001F981084110457
:103EA0001104108810700000000007F00888110449
:103EB000110418880070000000001C00100010FCA5
:103EC00013001C001000000000000E381144108484
:103ED000108411440E38000000000700088C1044C4
:103EE0001044088807F00000000000000000030CE8
:103EF000030C0000000000000000000000010106AB
:103F000000000000000000000000008001400220CE
:103F100004100808100400000220022002200220E1
:103F200002200220022000000000100408080410F3
:103F3000022001400080000000000E001200100C62
:103F4000106C10800F00000003E00C1813E4142420
:103F500017C4082807D000000004003C03C41C401C
:103F6000074000E4001C000410041FFC11041104AD
:103F700011040E880070000003E00C1810041004F7
:103F8000100410081C10000010041FFC1004100482
:103F90001004080807F0000010041FFC11041104AD
:103FA00017C410040818000010041FFC11041100AD
:103FB00017C010000800000003E00C1810041004E3
:103FC00010441C780040000010041FFC1084008086
:103FD000008010841FFC10040000100410041FFC5B
:103FE0001004100400000000000300011001100183
:103FF0001FFE10001000000010041FFC11040380BD
:104000001464181C1004000010041FFC10040004A9
:1040100000040004000C000010041FFC1F0000FC42
:104020001F001FFC1004000010041FFC0C04030000
:1040300000E010181FFC100007F00808100410041E
:104040001004080807F0000010041FFC1084108002
:10405000108010800F00000007F0081810241024B2
:10406000101C080A07F2000010041FFC11041100C4
:1040700011C011300E0C000400000E1C110410843D
:10408000108410441C3800001800100010041FFC9D
:10409000100410001800000010001FF810040004A5
:1040A000000410041FF8100010001E0011E0001C96
:1040B000007013801C0010001FC0103C00E01F00A7
:1040C00000E0103C1FC000001004180C163401C0A2
:1040D00001C01634180C100410001C00130400FC5E
:1040E00013041C00100000000804101C106410844D
:1040F00013041C04101800000000000000007FFEE4
:104100004002400240020000000030000C0003802A
:104110000060001C0003000000004002400240025A
:104120007FFE0000000000000000000020004000B2
:1041300040004000200000000001000100010001DB
:1041400000010001000100010000400040002000CB
:10415000000000000000000000000098012401445D
:104160000144014400FC000410001FFC008801040D
:104170000104008800700000000000700088010445
:1041800001040104008800000000007000880104A0
:10419000010411081FFC0004000000F80144014460
:1041A0000144014400C800000000010401040FFCA8
:1041B0001104110411001800000000D60129012982
:1041C000012901C90106000010041FFC0084010040
:1041D0000100010400FC000400000104190419FCA2
:1041E00000040004000000000000000300010101C1
:1041F000190119FE0000000010041FFC00240040FB
:1042000001B4010C010400000000100410041FFCA4
:104210000004000400000000010401FC010401008E
:1042200001FC0104010000FC010401FC0084010008
:104230000100010400FC0004000000F80104010476
:104240000104010400F80000010101FF00850104E0
:104250000104008800700000000000700088010464
:104260000104010501FF00010104010401FC0084B7
:104270000104010001800000000000CC01240124A1
:10428000012401240198000000000100010007F84A
:104290000104010400000000010001F80004000412
:1042A0000004010801FC0004010001800170000C01
:1042B000001001600180010001F0010C003001C01C
:1042C0000030010C01F0010000000104018C0074B9
:1042D0000170018C01040000010101810171000ED7
:1042E000001801600180010000000184010C01340C
:1042F00001440184010C00000000000000000000E7
:1043000001003EFC400240020000000000000000EE
:10431000FFFF0000000000000000400240023EFCE1
:10432000010000000000000000006000800080002C
:1043300040004000200020000000000000000000BD
:10434000000000000000000000000000000000006D
:10435000000000000000000000000000000000005D
:1043600000000000000000000000000F80380FFE79
:10437000380F80380000000000000000000000003E
:104380000000000000000100000600000C000038E2
:1043900000003100000600000C0000380000300072
:1043A000000000000000000061800067F807F9804D
:1043B0000061800061800061800061800067F80713
:1043C000F98000618000000000000000000001C0D2
:1043D000E003E0F00630080418081FFFFE040E0892
:1043E0000787F00381E000000000000001F00006F4
:1043F0000C00040408060C7001F9C0000E00003B1C
:10440000E000EC18070808040C180003E0000000A6
:104410000001E00007F003F818041C08041708075F
:10442000E1D003C0E00023B0003C080020080000F9
:104430001000000000000001000031000032000008
:104440001C00000000000000000000000000000050
:10445000000000000000000000000000000000005C
:1044600000000000000000007F0001FFC00780F096
:104470000C001810000420000200000000000020C2
:1044800000021000040C00180780F001FFC0007F3C
:10449000000000000000000000000000000000001C
:1044A000000000004200006600006600003C0000C2
:1044B000180003FFC0001800003C00006600006602
:1044C0000000420000000000080000080000080092
:1044D00000080000080001FFC000080000080000FC
:1044E00008000008000008000000000000010000B3
:1044F0003100003200001C0000000000000000003D
:1045000000000000000000000000000000000000AB
:10451000080000080000080000080000080000086B
:10452000000008000008000008000008000000006B
:1045300000000000000000003800003800003800D3
:10454000000000000000000000000000000000006B
:104550000000000000000000000600001C000070C9
:10456000000180000E0000380000C0000700001CA1
:104570000000300000000000000000007F8001FF0C
:10458000E003807006001804000804000806001804
:1045900003807001FFE0007F800000000000000049
:1045A000000001000801000801000803FFF807FFF0
:1045B000F8000008000008000008000000000000EB
:1045C00000000001C03802C058040098040118041B
:1045D0000218040418061C1803F81801E0F800007B
:1045E0000000000000000001C0E003C0F00400086B
:1045F00004080804080806180803F41801E7F00086
:1046000001E0000000000000000000000300000DB9
:104610000000110000610000810803010807FFF895
:104620000FFFF80001080001080000000000000072
:1046300000E007FCD006080806100806100806105F
:1046400008061838060FF00607C00000000000003A
:10465000000000003F8001FFE003843002081804DE
:104660001008041008041008071810030FF00007C2
:10467000C000000000000000000003C000070000B0
:104680000600000600F80607F806180006E0000716
:10469000000006000000000000000001E1E003F758
:1046A000F0063410041808041808040C08040C0858
:1046B00006161803F3F001C1E0000000000000003E
:1046C000F80003FC30030638040208040208040260
:1046D000080404100308F001FFC0007F0000000080
:1046E00000000000000000000000000000000000CA
:1046F00070380070380070380000000000000000C2
:1047000000000000000000000000000000000000A9
:1047100000000000301A00301C0000000000000003
:104720000000000000000000000000000000000881
:1047300000001400002200004100008080010040C1
:104740000200200400100800080000000000000023
:104750002100002100002100002100002100002193
:1047600000002100002100002100002100000000C5
:1047700000000000000008000804001002002001F2
:10478000004000808000410000220000140000086A
:104790000000000000000003C00004C0000400008E
:1047A000080038080F380808380810000C300007D7
:1047B000E00003C000000000000000003F8000FF98
:1047C000E0038070020F1006708804C0880483081C
:1047D000047F8802C09003012000FE400000080012
:1047E00000180001F8003E0801C20007020007E2BD
:1047F0000000FE00001FC80001F80000380000089B
:1048000004000807FFF807FFF80408080408080474
:10481000080804080806180803F41801E7F0000166
:10482000E0000000000000003F8001FFE003807016
:104830000200180400080400080400080400100620
:1048400000200780C000000004000807FFF807FFF1
:10485000F80400080400080400080400180200100E
:1048600003807001FFE0007F800000000400080763
:10487000FFF807FFF80408080408080408080408FB
:1048800008043E080400080600180100600000004B
:1048900004000807FFF807FFF804080804080004EC
:1048A0000800040800043E00060000060000018025
:1048B00000000000000000003F8001FFE003807066
:1048C0000600180400080402080402080203F007A6
:1048D00083F000020000020004000807FFF807FF51
:1048E000F80408080008000008000008000008009C
:1048F00004080807FFF807FFF8040008000000009C
:10490000000004000804000804000807FFF807FF7F
:10491000F80400080400080400080000000000007B
:104920000000000000060000070000010400010470
:10493000000104000307FFFE07FFFC040000040061
:104940000004000004000807FFF807FFF8040C0843
:10495000001800003E0004C7800503C80600F804E4
:10496000003804001800000804000807FFF807FFDB
:10497000F804000800000800000800000800000813
:104980000000080000180000600000000400080794
:10499000FFF807800807FC00007FC00003F800074D
:1049A000C000780007800807FFF807FFF804000838
:1049B00004000807FFF807000803C00000E000003B
:1049C0003800001E000007000001C00400F007FFCF
:1049D000F8040000000000007F8001FFE003807009
:1049E000060018040008040008060018030030013F
:1049F000FFE0007F8000000004000807FFF807FFC9
:104A0000F80404080404000404000404000404007E
:104A1000060C0003F80001F0000000000000000098
:104A20007F8001FFE0038070060088040088040096
:104A3000C806003C03003E01FFE6007F8400000042
:104A400004000807FFF807FFF8040808040800043A
:104A50000C00040F00040BC00610F003F03801E056
:104A60000800000800000001E0F803F030063010F4
:104A7000041808041808040C08040C08020618029C
:104A800007F00781E000000001800006000004003C
:104A90000004000004000807FFF807FFF8040008FE
:104AA000040000040000060000018000040000076C
:104AB000FFE007FFF00400180000080000080000F5
:104AC0000800000800000804001007FFE0040000D0
:104AD00004000006000007E00007FE00041FE000DD
:104AE00001F80000380001E0043E0007C0000600A5
:104AF0000004000004000007E00007FFC0041FF8E6
:104B00000007C007F80007FF80043FF80007C00453
:104B1000F800070000040000000000040008060080
:104B20001807C07805F1C8003E00001F800463E844
:104B30000780F806001804000800000004000006C2
:104B4000000007800007E008047C08001FF8000749
:104B5000F800180804E00807000006000004000040
:104B60000000000100080600380400F80403E8040F
:104B70000F08047C0805F00807C0080700180400A7
:104B800060000000000000000000000000000000C5
:104B90000000003FFFFE2000022000022000022053
:104BA00000022000020000000000000000000800D9
:104BB0000007000000C0000038000006000001C02F
:104BC00000003000000E00000100000000000000A6
:104BD000000020000220000220000220000220002D
:104BE000023FFFFE00000000000000000000000087
:104BF000000000000000000000080000100000306D
:104C0000000020000030000010000008000000003C
:104C10000000000000000100000100000100000190
:104C2000000001000001000001000001000001007F
:104C30000001000001000001000000000000000071
:104C40000020000020000010000010000000000004
:104C50000000000000000000000000000000000054
:104C600000F00019F8001B18002208002608002494
:104C700008002410003FF8001FF80000080000188A
:104C800000000004000007FFF80FFFF000181800F4
:104C90001008002008002008003018001FF0000F46
:104CA000C00000000000000007C0001FF000183026
:104CB000002008002008002008003C08001C10000C
:104CC00000600000000000000000000007C0001F9E
:104CD000F0003818002008002008002008041010F8
:104CE00007FFF80FFFF000001000000000000000B8
:104CF00000000007C0001FF0001230002218002240
:104D000008002208003208001E10000E20000000DB
:104D100000000000200000200800200801FFF80328
:104D2000FFF80620080420080420080720000300DC
:104D30000000000000000000000E000E6E001FF3D7
:104D40000031B10020B10020B1003191001F1300EB
:104D50002E1E00200E00300000000004000807FF97
:104D6000F80FFFF8001008002000002000002008C5
:104D7000003FF8001FF800000800000000000000DD
:104D80000000002008002008002008063FF8063F29
:104D9000F800000800000800000800000000000003
:104DA00000000000000000000300000300200100DC
:104DB0002001002003063FFE063FFC00000000002B
:104DC0000000000000000004000807FFF80FFFF8D3
:104DD000000188000300002FC00038F800203800D0
:104DE000200800000800000000000000000004008F
:104DF0000804000804000807FFF80FFFF800000887
:104E0000000008000008000000000000002008006A
:104E10003FF8003FF8001008002000003FF8003F76
:104E2000F8001008002000003FF8003FF8000008DC
:104E3000000000002008003FF8003FF800100800C4
:104E40001000002000002008003FF8001FF80000BC
:104E5000080000000000000007C0000FF00018303C
:104E6000003008002008002008003008001830003A
:104E70000FF00007C0000000000000002001003F0C
:104E8000FF003FFF0010110020090020080020084B
:104E9000003038001FF0000FC000000000000000CC
:104EA00007C0001FF000381800200800200800206C
:104EB00009001011001FFF003FFF0000010000006B
:104EC000002008002008002008003FF8003FF800FC
:104ED0000808001008002008002000003000003002
:104EE00000000000000000000000000C78001E1808
:104EF00000330800230800210800218800219800C1
:104F000030F00038600000000000000020000020A9
:104F10000000200000FFF003FFF800200800200838
:104F20000020080000300000000000000000000029
:104F30002000003FF0007FF800001800000800008B
:104F400008002010003FF8007FF000001000000073
:104F5000000000002000003000003C00003F800006
:104F600023F0000078000070002380003C00003037
:104F700000002000002000003C00003FE00023F87B
:104F80000000E0002700003E00003FE00021F800A4
:104F900001E0003E0000200000000000200800208A
:104FA00008003838003E680027800003C8002CF84D
:104FB0000038380020180020080000000000000021
:104FC0002000003003003C01003F830023EC000080
:104FD00070002380003C0000200000200000000042
:104FE0000000000000000038080020380020F80011
:104FF00023E8002F88003E08003808002018000031
:105000007000000000000000000000000000000030
:105010000000000008000014001FF7FC300006200C
:10502000000200000000000000000000000000007E
:1050300000000000000000000000FFFFFF00000073
:105040000000000000000000000000000000000060
:1050500000002000023000061FF7FC0014000008CA
:105060000000000000000000000000000000000040
:105070000000001800006000004000004000002018
:1050800000001000000800000400000400000C00F4
:1050900000100000000000000000000001020304F6
:1050A0000607080900000000010203046465666148
:1050B000756C745461736B006B657900DC5000088B
:1050C00000000020A00000008E2600087C5100088F
:1050D000A0000020001600009E260008000000002E
:1050E00000000000000000000000000000000000C0
:1050F000B9FEB9FEB9FE200D0A0000000000FFFF56
:10510000000000000000000000000000010000009E
:10511000100000000000000000A24A04000000008F
:10512000000000000000000000000000000000007F
:10513000000000000000000000000000000000006F
:10514000000000000000000000000000000000005F
:10515000000000000000000000000000000000004F
:10516000000000000000000000000000000000003F
:0C51700000000000AAAAAAAA000000008B
:0400000508000131BD
:00000001FF
