:020000040800F2
:1000000000300020DD01000853700008C34C0008D8
:10001000517000084D040008D17A0008000000006B
:100020000000000000000000000000004501000882
:10003000430500080000000089010008E175000880
:10004000F7010008F7010008F7010008F7010008B0
:10005000F7010008F7010008F7010008F7010008A0
:10006000F7010008F7010008F7010008F701000890
:10007000F7010008F7010008010500080D05000858
:10008000F7010008F7010008F7010008F701000870
:10009000F7010008F7010008F7010008F701000860
:1000A000F7010008F7010008F7010008F701000850
:1000B000F7010008F7010008F7010008F701000840
:1000C000F7010008F7010008F7010008F701000830
:1000D000F7010008757A0008F7010008F701000829
:1000E000F7010008F7010008F7010008F701000810
:1000F000A5760008F7010008F7010008F7010008DD
:10010000F7010008F7010008F7010008F7010008EF
:10011000F7010008F7010008F7010008F7010008DF
:10012000F7010008F7010008F7010008F7010008CF
:10013000DFF80CD000F0ECF80048004715FF00088D
:1001400000300020224B19680868B0E8F00F80F3F7
:100150000988BFF36F8F4FF0000080F311884EF0D5
:100160000D0E70470000000006480068006880F32C
:10017000088862B661B6BFF34F8FBFF36F8F00DFA1
:1001800000BF00BF08ED00E0EFF30980BFF36F8F01
:100190000F4B1A6820E9F00F106008B54FF05000BF
:1001A00080F31188BFF34F8FBFF36F8F10F0C4FB44
:1001B0004FF0000080F31188BDE808401968086816
:1001C000B0E8F00F80F30988BFF36F8F704700BF6E
:1001D00040000020EFF3058070470000064880478C
:1001E00006480047FEE7FEE7FEE7FEE7FEE7FEE71C
:1001F000FEE7FEE7FEE7FEE75D7600083101000856
:1002000010B5431A934209D28318881803E010F8F6
:10021000011D03F8011D521EF9D210BD40EA010371
:100220009B0703D009E008C9121F08C0042AFAD2AC
:1002300003E011F8013B00F8013B521EF9D210BD5A
:10024000D2B201E000F8012B491EFBD27047002218
:10025000F6E710B513460A4604461946FFF7F0FFC5
:10026000204610BD421C10F8011B0029FBD1801A4A
:100270007047034611F8012B00F8012B002AF9D131
:100280001846704770B506460FF094FC04680546A2
:100290000A220021304600F002F82C6070BD2DE9E2
:1002A000F04791460F4680460446002614F8015B4D
:1002B0002DB100F03FF80068405DC007F6D12B2D4E
:1002C00002D02D2D18D0641E4A463946204600F033
:1002D00035F827B13968A14201D1C7F8008071050E
:1002E0004FF002040BD54042002803DD0FF062FC02
:1002F0000460A007BDE8F08746F48066E4E70028C4
:10030000F8DA0FF057FC04606FF00040F2E70000ED
:10031000064C074D06E0E06840F0010394E8070052
:1003200098471034AC42F6D3FFF706FF683D01084A
:10033000883D0108004870473C3D01082DE9F05F09
:1003400082460078002715468B460AF10104B9461B
:10035000302801D09DB113E014F8010B0127782853
:1003600003D0582801D045B10AE00DB1102D07D1B6
:100370000027102514F8010B02E0082500E00A25EB
:100380000026B0460EE005FB080005FB06F101273C
:1003900001EB10461FFA80F8B6F5803F00D3B9464E
:1003A00014F8010B294600F018F80028EBDABBF12D
:1003B000000F05D00FB1641E00E05446CBF800409A
:1003C000B9F1000F06D00FF0F5FB02210160C81E45
:1003D000BDE8F09F48EA0640FAE73A2800D23038F4
:1003E00020F02002412A01D3A2F13700884201D334
:1003F0004FF0FF30704770B58C1810F8015B15F0A6
:10040000070301D110F8013B2A1106D110F8012B86
:1004100003E010F8016B01F8016B5B1EF9D12B07AB
:1004200005D40023521E0DD401F8013BFAE710F861
:10043000013BCB1A921C03E013F8015B01F8015B4E
:10044000521EF9D5A142D8D3002070BDFEE70000AE
:100450007CB5214C0546216831F8220F4A8D1044A5
:1004600008804888CA8D10444880284601F000FA68
:100470002168498CADF800104618284603F06EF844
:100480003044401EADF8040001F038FA2168898C30
:10049000ADF802100844401EADF80600684608F0AA
:1004A000B7FE04E0284600F04FF808F073FE00287D
:1004B000F8D10A2D04D0BDF804002168401C4884FE
:1004C000206830F8221F428D891A01804188C28D30
:1004D000891A41807CBD0000B40000201CB508F0E2
:1004E00015F80346002000900190034A03210348B9
:1004F00000F056FE1CBD00002DFC0008341301085E
:10050000014803F0BBBA000018180020014803F0AE
:10051000B5BA0000D417002030B590F8405001243F
:10052000AC40C56B6C60046863604368102B036863
:1005300003D099600068C26030BD9A600068C160F5
:1005400030BD70477047000010B504460A2812D02D
:100550000D2C14D001F094FA09480068C0690168B4
:10056000204688470748016809B120468847BDE80A
:10057000104002F0CFBABDE8104000F07DBF10BDC2
:10058000B4000020E000002010B5002001F098FF2A
:100590006FF07F4001F09FFF012001F0F7FF002086
:1005A00002F002F8002002F00FF8002001F0A4FF92
:1005B0000448006801F0ACFFBDE81040002001F0E5
:1005C000B7BF0000B000002070B50C46054600F033
:1005D000FFF8A8682168C16261680163A16841638E
:1005E000490707D5D0E90021C0E90012D0E902216E
:1005F000C0E90212A18981842169002903D001DCAC
:100600004FF00001016270BD2DE9F0411E46174612
:100610008846054600F0DCF8AC686822414604F5DF
:100620008670FFF7EDFD2846B8472846B047286991
:1006300080688047A062BDE8F081000010B50446E4
:1006400000F0C6F8A0681149144AC0F8AC1010496F
:10065000C0F8A8100F49C0F8B0100F49C0F8B81082
:100660000021C0F8BC101368C0F8B4300C4BC0E9CE
:1006700032315168C0F8C41030F8261F21F0030150
:1006800020F82A1B0749416410BD000069EC0008EE
:10069000B1ED000831EC000847E600081401002025
:1006A00017E70008D9EB000810B5044600F090F8F1
:1006B000A46810481021C4F8E4000F48C4F8E8000A
:1006C0000E48C4F8EC000E48C4F8F0000D48C4F819
:1006D000A0000D48C4F8A400D4F8C400C4F8FC007D
:1006E000D4F89420204690471020A0630748606407
:1006F00010BD000089B50008E9C200081107000814
:100700004108000801E60008BDF30008A432010812
:10071000F8B5846815460F4694F8260080074CD536
:10072000D4F80031204698470646D4F804312A46CA
:10073000394620469847D4F8983005461BB1002228
:100740000121204698472069B04201DD012000E0E8
:100750000020A169B14201DA012100E00021084333
:100760006169A94201DD012100E000210843E1693E
:10077000A94201DA012100E0002108430AD06068A3
:100780000022401E00902368D4F8A870114620462D
:100790005B1EB847D4F8AC302A463146204698470D
:1007A000D4F8A01020468847D4F8983005466BB19D
:1007B000012200212046984708E0D4F8AC302046BA
:1007C0009847D4F8A0102046884705462846F8BD2B
:1007D00070B504468068002812D14FF4BA752846D7
:1007E00000F0B6FA2A460021A06003F02EF8A068B7
:1007F0000221C1840121046401620249C0F8081188
:1008000070BD00000908000810B590B00446202211
:100810000A496846FFF7F4FC08492022203108A85D
:10082000FFF7EEFC606B5DF82010C4F8001108A91A
:1008300051F82000C4F8040110B010BDF4130108F1
:100840002DE9F84384689846154694F826000F462B
:10085000800740D5D4F80031204698470646D4F8A2
:1008600004312A4639462046984705462069B04259
:1008700001DD012000E00020A169B14201DA01217F
:1008800000E0002108436169A94201DD012100E087
:1008900000210843E169A94201DA012100E00021B9
:1008A00008430AD060680022401E00902368D4F8F4
:1008B000A870114620465B1EB847D4F8AC302A46D3
:1008C000314620469847D4F8A42001B0414620463E
:1008D000BDE8F0431047D4F8AC30F2E72DE9F04F13
:1008E000DFF828B191B04FF0FF35DBF80030B3F9F5
:1008F00022100691DE69B3F924A0F469A18981422E
:1009000006D8E289824203D3471AD4F8008012E065
:10091000D4E90181002970D00A8882426DD84D88BF
:1009200085426AD3801A82B2486800EB8200B0F92F
:100930000070B0F90250781C5FD0307EA27C014676
:1009400000FB02F9207CCDE90710B3F92A6030469C
:1009500005F0BAF8C0B20E90DBF8001007FB098072
:10096000A37C8A6B0127CDE90402CDE90273C86933
:10097000089AC17E807ECDE90001DDE9060351467B
:1009800004F0F8F9681C18D046F0020005F09CF855
:10099000DBF80000A37C05FB0981826BCDE90273C3
:1009A000CDE90412C069089AC17E807ECDE90001BC
:1009B000DDE90603514604F0DDF9DBF800005D4691
:1009C000C069417E007E814214D9022E12D086F089
:1009D000040005F079F82868C069027EC37E857E30
:1009E00002FB03A1437E089A0698534402FB0502CA
:1009F00004F04CFB0E9805F067F8DBF80000627C11
:100A0000418C1144418411B0BDE8F08FB400002046
:100A100004480068C069C06909B1027C0A60407C72
:100A200070470000B4000020022008807047C069B1
:100A300082898A4202D8C2898A4210D2806880B1F3
:100A400002888A420DD843888B420AD3406800EB63
:100A50008100A0EB8200B0F90000002801DB01203A
:100A600070470020704700002DE9F0432F4C0346EB
:100A700087B020681946B0F92A80C069C06900F0C3
:100A800082F800284ED041680088181A01EBC00592
:100A90004046AE7805F018F8814620686A68012360
:100AA000816BCDE90236CDE90421C169CB7E8A7E16
:100AB000CDE900230B7EB0F924102A78B0F922008A
:100AC00004F058F92068C069477E067EB7421DD9F8
:100AD000C07E47434643B8F1020F17D000F0F3FE43
:100AE000804600F0B9FE01F0F6FC21682A78CB6957
:100AF000B1F92200B1F92410DB7E02FB0302CB190D
:100B0000314404F0C3FA404601F0E5FC484604F0E5
:100B1000DBFF20686A78C369B0F922109B7E02FB74
:100B20000311418407B0BDE8F0830000B400002049
:100B300030B50E4C05460B4620682946C069C06991
:100B400000F021F8002810D04168008824682A1A93
:100B50000120E46900EBC200085CA47E6043002B26
:100B600003D011F832106143196030BDB400002089
:100B700001200880704700B5C06900F004F8002823
:100B800000D0012000BD06E002888A4202D84288D7
:100B90008A4202D280680028F6D170472DE9F041E0
:100BA0000025154E154C18E02069C5EB051700EB24
:100BB000C7007022001D3168FFF722FB2069002169
:100BC00040F8371000EBC70000F10C018161011DF6
:100BD0000A1DC0E90F126D1C4164A0688542E3DB69
:100BE0000CF060FB2169C0EB001001EBC000001DA0
:100BF0003060BDE8F0810000B40000202002002039
:100C000070B50F490D480860084602F0DBFD0C4C3A
:100C1000143CA068C0EB0010C500284600F098F80E
:100C20002A460021206102F010FE4FF0FF302060C4
:100C300001F092FFBDE870400CF034BBB1DF00085A
:100C400034020020F8B50C0005460FD000F018FF64
:100C5000204600F017F8060010D000F007F92246F1
:100C600000902DB12946FFF7CBFA04E00020F8BD33
:100C7000002102F0EAFD684600F054F901F04AFF55
:100C80003046F8BD10B5040009D000F0F9FE20464A
:100C900009F082F9044601F03DFF204610BD002016
:100CA00010BD38B5054600F0EBFE2846FFF7EAFF19
:100CB000040009D000F0DAF82A460021009002F082
:100CC000C4FD684600F02EF901F024FF204638BD2F
:100CD000024A106021F0030050607047C8260020CF
:100CE00010B5040016D000F0CBFE0B48406B10F896
:100CF000341059B1022909D2042101EBC401415831
:100D0000486808F03FFE20460DF066FCBDE8104044
:100D100001F000BF10BD000008260020002805D00B
:100D2000034AD16B016001B14860D0637047000095
:100D30000826002010B5044600F0A2FE2068FFF748
:100D4000CFFF00202060BDE8104001F0E3BE0000AE
:100D50002DE9F04104460CF053FC2848E41C24F033
:100D60000305016C2D1DA94200D90D46C46B13E08B
:100D700054F8042CAA420ED184B1216809B16268EA
:100D80004A60616809B122680A60C26BA24231D12F
:100D90002168C1632EE02468002CE9D18046816B74
:100DA000C0680F1857F8040C3E1A306838B100209C
:100DB0000DF01EFD57F8040C3E1A3068D0B970686B
:100DC000A84217DB3044441B3046241D0DF0C8FCFC
:100DD000D8F80C10491BC8F80C10D8F81410294486
:100DE000C8F814107068401B02D0314608F0CAFDE4
:100DF00044F8045C2046BDE8F0810000082600208D
:100E000010B500240CF0FCFB0C490F2001EBC002D4
:100E1000526C1AB101EBC000406C08E0401EF5D5E1
:100E200008E04168A14200D90C46806810B1806892
:100E30000028F6D1A4F10C0010BD00000826002007
:100E4000002138B10449042202EBC000496B085864
:100E500041680C390846704708260020024881691D
:100E6000491C816170470000082600200549CA69B5
:100E7000521CCA61496B01EBC0010A78521C0A700E
:100E800000F068B8082600207CB506460C460846E7
:100E9000FFF7F8FE050020D0FEB13046FFF7D0FF87
:100EA000A04200DA044600F0EBFD2846FFF7DEFF23
:100EB00000903046FFF7DAFF014601902246009885
:100EC000FFF79EF9684600F02DF801A800F02AF817
:100ED0003046FFF705FF01F01DFE28467CBD0000EF
:100EE00010B500F0CDFDFFF78BFF64220849B0F587
:100EF000800F04D990FBF2F4086A444303E0096AC6
:100F00004143B1FBF2F401F005FE204610BD0000A4
:100F10000826002002488169491E8161704700004F
:100F2000082600200A4902684B6B52F8082C03EB94
:100F3000C2021378022B03D3CB690BB15B1ECB61CA
:100F40001178491E117000210160084670470000A9
:100F500008260020002806D00349042202EBC00026
:100F6000496B085808307047082600202DE9FC41DD
:100F70004FF000060B465FEA000834462BD032B132
:100F800011461846FFF75EFE060000D101244046D8
:100F9000FFF76CFF0090078845686846FFF7C2FFBF
:100FA000CCB9B9002846091DFFF76EFF050015D022
:100FB000FFF75CFF019040F8276001A8FFF7B2FF40
:100FC0004046FFF753FF009045600188491C0180AF
:100FD0006846FFF7A7FF2046BDE8FC813046FFF7D3
:100FE0007FFE0124F7E70820FFF75BBE7CB5050014
:100FF00023D0FFF73BFF00904068C0B1FFF736FFFA
:101000000024019005E0019800EB8400FFF792FEB8
:10101000641C00980088A042F5DC01A8FFF782FF5D
:101020000098001DFFF786FE0099002008806846A2
:10103000FFF778FF2846FFF753FE7CBD38B5002444
:1010400030B1FFF713FF009004886846FFF76AFF8E
:10105000204638BD38B50D46002448B1FFF706FFDD
:101060002946009000F016F804466846FFF75AFF3C
:10107000204638BD38B50D46002448B1FFF7F6FECE
:101080002946009000F018F804466846FFF74AFF2A
:10109000204638BD38B50D4601880024A94209D93B
:1010A000406838B1FFF7E2FE009050F825406846EE
:1010B000FFF738FF204638BD10B50024FFF7EAFFE0
:1010C00010B1FFF7D3FE0446204610BD10B5C2B2E2
:1010D000CBB2D21A00D5524293B25B43C0F307227F
:1010E000C1F30724121B00D55242000C92B2A0EBB0
:1010F000114002FB023200B2002801DA404200B285
:1011000080B200FB002010BD10B50021084600F0A1
:101110002FFC43F6FF725042BDE8104013460146D3
:10112000AFF300802DE9FC411C4615460E460746EC
:1011300000F0A6FC042004F0C7FC80461248C068FA
:10114000C16C006D0F4406440D440444ADF80070BA
:10115000ADF80450ADF80260ADF80640684608F0FE
:1011600057F807E023462A463146384603F08EFFFB
:1011700008F010F80028F5D1404604F0A5FC01F075
:10118000C9FCBDE8FC810000A8000020B0F90630D1
:10119000B0F90420B0F90210B0F90000FFF7C2BFA7
:1011A0002DE9F8431C00DDE9089816460F46054670
:1011B00002D107F0ABF9044600962E6843464A4632
:1011C00021462846B047061E39D007F094F98146DB
:1011D000698A304606F02AFD304607F0C1FE4846CF
:1011E00007F0BEFE4FF000080CE000BFCDF8008015
:1011F00055F81CCF00231A4649462846E04700B35D
:1012000007F0AEFE7F1E002FF0DC1D21484607F0E0
:1012100028FD601C12D000F033FC07F0B1F930B1AA
:10122000FFF798FE8469B44201D02000F8D1B4429F
:1012300002D0304607F0B2FD01F06CFC3046BDE84C
:10124000F883304607F05EF80020F8E72DE9F0411A
:101250001C4616460D460746022B02DB0020BDE861
:10126000F0811C20FFF774FD0028F8D00DB1056156
:101270000AE0094A52F8241009B905E011460A6843
:10128000002AFBD109690161846186820021016025
:101290004160C0E90217E2E7CC00002070B51D46AE
:1012A000FFF7D4FF040009D000F00EF8E0680068F2
:1012B00020B90348006800EB85008465204670BDB6
:1012C000B4000020FFF72ABD70B590B38269022AEE
:1012D00030DA1E4C54F8221019B944F8220032E0DA
:1012E00019464B68002BFBD106E0CB68C5681B682C
:1012F0002D68AB4203DD09680029F6D11AE0C1B1BF
:10130000CB68C6681B683668B3420CD1838A012B50
:1013100005D008E01946DB681B68AB4203DB0B68AD
:10132000002BF7D129B14B6833B118604A6842608D
:1013300004E0FFE7012070BD44F8220048608842C5
:1013400000D100210160002070BD0000CC00002011
:1013500010B503E00468FFF7B7FF20460028F9D175
:1013600010BD00000A4A816952F82130834202D13F
:10137000036842F82130416809B102680A600168D7
:1013800009B142684A600021016041607047000075
:10139000CC00002000207047022801DB00207047AD
:1013A000054951F8200004E0C16809680029F6D019
:1013B00000680028F8D17047CC0000202DE9F041EA
:1013C000044601F0C6FB06191EE000BF00F018FA43
:1013D000052F00DD052700F053FB11480568FFF7D6
:1013E0003DFD2C0017D000BF01F094FB641EFBD123
:1013F000384601F0A9FB1DB100F042FB6D1EFBD188
:10140000FFF788FD01F086FB01F0A3FB371A002FE0
:10141000DCDCBDE8F081384601F096FBF0E7000027
:101420002C02002010B5044600F02AFB2046FFF7EE
:101430000FF8BDE8104001F06DBB000070B5144618
:101440000D46064600F01CFB0548016830464D84F9
:101450008C84FEF7FDFFBDE8704001F05BBB00002F
:10146000B400002070B50C46054602E02846FFF7A0
:10147000D9FF641EFAD570BD10B500F001FB00F075
:101480002FFA054909688A8C10448884088C48849E
:10149000BDE8104001F03EBBB400002047F6FF73EA
:1014A000AFF300802DE9FC411F4690460D46060033
:1014B0004FF000041AD000F0E3FA65B1284607F0B7
:1014C000F5FC040007D002462946684602F07BF886
:1014D000684607F0EBFC3B4642462946304601F0A1
:1014E00039FD204607F0E2FC01F014FBBDE8FC8169
:1014F0001CB50A460146684602F057F900F0C0FAEA
:101500002548BDF80010006830F84C2F1144ADF8A4
:101510000010BDF8021082881144ADF80210BDF829
:10152000041002881144ADF80410BDF8061080883C
:101530000844ADF80600684607F06AFE27E000BFE1
:10154000BDF900400BE000BFBDF90210204603F0DA
:101550003FFDBDF90610204603F03AFDA41CBDF97D
:101560000400A042F0DABDF902400AE0BDF9000033
:10157000214603F02DFDBDF90400214603F028FDAE
:10158000A41CBDF90600A042F0DA07F003FE002813
:10159000D6D101F0BFFA1CBDB40000202DE9F04FF8
:1015A00087B09B46DDE9109892460C46054600F050
:1015B00067FA16480168C86C096D47190E1900EBE7
:1015C0000A0501EB0B04ADF81070ADF81450ADF83E
:1015D0001260ADF8164004A807F01AFE88B1DFF8D3
:1015E00030B04FF0000ACDE90098CDE902BA2B46A1
:1015F0002246394630460AF081FB07F0CBFD002831
:10160000F1D101F087FA07B0BDE8F08FB4000020F7
:10161000395000082DE9F04F87B09B46DDE910985E
:1016200092460C46054600F02BFA16480168C86C35
:10163000096D47190E1900EB0A0501EB0B04ADF813
:101640001070ADF81450ADF81260ADF8164004A853
:1016500007F0DEFD88B1DFF830B04FF0010ACDE9C8
:101660000098CDE902BA23462A46314638460AF0A8
:1016700045FB07F08FFD0028F1D101F04BFA07B0D0
:10168000BDE8F08FB4000020794F00082DE9FC413F
:1016900014460D46064600F0F3F9114F3968C86C40
:1016A000096D054404440E44ADF80050ADF8044003
:1016B000ADF80260ADF80660684607F0A9FD08E0E5
:1016C000386822463146406E03682846984707F03E
:1016D00061FD0028F4D101F01DFABDE8FC81000095
:1016E000B40000207CB50C46064600F0C9F90F4D49
:1016F0002868C16C006D0E440444ADF80460ADF878
:101700000060ADF80640ADF80240684607F080FD85
:1017100007E028682146406E42683046904707F04F
:1017200039FD0028F5D101F0F5F97CBDB4000020A9
:101730002DE9FC411C4616460D46074600F0A0F96F
:101740001A480168087ECA6C096D17440D440C44A0
:10175000401E391A1644ADF800103118ADF80410C7
:10176000291A2044ADF80600ADF80210684607F0CB
:101770004FFD15E032462946384603F0FDFB324660
:101780002146384603F0F8FB621E691C384603F018
:1017900053FC621E691C304603F04EFC07F0FAFC55
:1017A0000028E7D101F0B6F9BDE8FC81B4000020C3
:1017B0007CB514460D46064600F062F90F480068F5
:1017C000C16C006D0E4405440444ADF80060ADF8F2
:1017D0000460ADF80250ADF80640684607F018FD09
:1017E00006E022462946304603F026FC07F0D2FCEC
:1017F0000028F6D101F08EF97CBD0000B400002075
:1018000010B5002400E0012400F004F80028FAD10B
:10181000204610BD094810B50068002410B180476B
:1018200000B1012406F0E6FD00B10124044800687F
:1018300010B1804700B10124204610BDD80000201F
:10184000D4000020034951F82000C1688A6A0821A9
:1018500010470000CC00002010B500F011F903F093
:1018600045FC03F0D7FC044601F054F9204610BDB6
:1018700010B5044600F004F9054800210068C0696D
:10188000426820469047044601F044F9204610BDC6
:10189000B400002070B50C46054600F0F1F806488B
:1018A00021460068C069426828469047044601F016
:1018B00031F9204670BD0000B4000020002801D09E
:1018C00006F0F6BD704710B500F0DAF803F016FC2C
:1018D00003F0A0FC044601F01DF9204610BD0000F5
:1018E00010B500F0CDF804480068C069447E01F0EE
:1018F00011F9204610BD0000B400002010B500F022
:10190000BFF801F0BFFD044601F004F9204610BD08
:1019100070B50C46054600F0B3F82146284601F0A4
:101920000FFEBDE8704001F0F5B810B5044601F0B7
:10193000F9FD01462046BDE8104001F0ADBD01F0C3
:1019400008B9407E7047017EC07E48437047000062
:10195000024951F82000006900687047CC0000205F
:10196000024951F82000006940687047CC0000200F
:1019700070B50D46044600F083F820460BF07CFD60
:10198000044628460BF080FD044301F0C3F82046CE
:1019900070BD00002DE9F0411948016821F00101F6
:1019A00001601848012585601749016000681749E2
:1019B000884200D0FEE701F0A5F9154E2E203070C8
:1019C00001F0C9F813480BF0E1FD0EF013FA0746D9
:1019D00003F0DAFB10B103F0EBFB38B903F0F1FBD5
:1019E000044603F0DAFB214604F068F800210846BB
:1019F00000F0ACFD06F01AFF75703846BDE8F081C6
:101A0000002000E000300240C2A507F4CDB5E8B5E3
:101A1000A8000020D42600202DE9FC411C461546D4
:101A20000E46074600F02CF8012000F065FD8046C8
:101A300012480068C16C006D0F4406440D44044414
:101A4000ADF80070ADF80450ADF80260ADF8064096
:101A5000684607F0DDFB07E023462A463146384654
:101A600003F014FB07F096FB0028F5D1404600F088
:101A700043FD01F04FF8BDE8FC810000B4000020F8
:101A800070B5184CE06820B101F061F861688842D7
:101A900004D001F073F801F05AF86060E068401C6F
:101AA000E06001281CD10BF0FDFB05462068854253
:101AB00016D0002813DBFFF76DFC01462068C0EB51
:101AC0000012206900EBC2025167C5EB0511064AFE
:101AD00000EBC100011D1160406FFFF739FC25606C
:101AE00070BD000020020020B40000201CB50400DE
:101AF00004D10E480068046E002C16D0FFF7C0FF1A
:101B00002046FFF7B3F9009044696846FFF70AFAE8
:101B10004CB12046FFF7AAF901908168896888478F
:101B200001A8FFF7FFF900F0F5FF1CBDB40000208D
:101B300001490A4600F002B801F0FFFF2DE9F04329
:101B400087B015460C465FEA000846D0FFF798FFBD
:101B5000002000F0D1FC814621480068066E404616
:101B6000FFF784F900900068806900F08DFC07465B
:101B700040F6FF70C44204D10098B0F90440B0F9B7
:101B800006500098611E0289ADF804401144ADF87A
:101B900008104189681E0844ADF80650ADF80A00E7
:101BA00006F014FA6846FFF7BDF901A807F030FB0C
:101BB00006E02A462146404600F088FB07F0EAFA94
:101BC0000028F6D1384600F05FFC304600F090F96E
:101BD000484600F091FC00F09DFF07B0BDE8F0839F
:101BE000B40000202DE9FE4F984691468A46834670
:101BF00000270C9EFFF744FF184819490068407CF5
:101C000051F82040E1680968042903D02468002CB9
:101C1000F8D100E01CB9FFF7BFFB041E1BD0E06841
:101C20000121C26A20469047050011D02469A068AE
:101C30008047401C02D10B4C46F001060096CDE9CE
:101C4000015443464A465146584600F0E5F90746D6
:101C500000F060FF3846BDE8FE8F0000B4000020B1
:101C6000CC000020F032010838B504001CD0FFF78A
:101C700007FF0E480068006EA04201D100F0F6FB9D
:101C80002046FFF7F3F80090406908B100F02BFF01
:101C900000980068FFF716FB6846FFF743F92046F7
:101CA000FFF71EF800F036FF38BD0000B40000203A
:101CB0002DE9FF4F83B09A468B460746FFF7E0FEBB
:101CC000DFF83891D9F80000447C4D4800570128CE
:101CD000204606DD03F05EFA0546204603F06EFA64
:101CE00005E003F03FFA0546204603F041FA0446BA
:101CF0001FB302A901A8FFF70BFEB7F900000028E7
:101D000000DA0020B7F902608046002E00DA0026D3
:101D100001984119B7F90400491E0CF02BF805464B
:101D200002980119B7F90600491E0CF023F8A5EB3B
:101D30000802841B521C641C03E04FF00008464656
:101D40002A46BAF1000F01D1C4F1000A002A51DD80
:101D5000002C4FDD10980090534631464046FFF767
:101D600041FF5FEA000A10D000F07CF80746A0426D
:101D700006D0D9F80000806C10B1322107F072FD56
:101D8000504600F0B5F8002523E0594605988847ED
:101D900000F0C0FE012007B0BDE8F08F611BB94222
:101DA00002DA504600F088F83DB1721941465046BB
:101DB00000F0C6F85046FFF799FE59460598884747
:101DC0001048016809B1002088475046FFF7B0FE6F
:101DD0003D44A542E2DB5046FFF746FF002000F0FD
:101DE00087F8A74206D0D9F80000806C10B13321E3
:101DF00007F038FD00F08EFE0020CCE7B400002094
:101E0000EC0000206402002038B505004FF000040B
:101E100011D0FFF735FE2846FFF728F8009000683C
:101E200000698068804704F03FF804466846FFF781
:101E300079F800F06FFE204638BD38B504000ED0AA
:101E4000FFF71EFE2046FFF711F800F1180400907E
:101E50006846FFF767F800F05DFE204638BD0020B9
:101E600038BD000038B504460025FFF709FE1CB94F
:101E700008480068046E44B12046FEF7F7FF009062
:101E8000B0F90A506846FFF74DF800F043FE2846C7
:101E900038BD0000B400002070B505460024284677
:101EA00008F05AFB641C18B1BDE8704000F07AB825
:101EB000052CF4DB70BD000038B50C46050004D1DC
:101EC0000A480068056E002D0FD0FFF7D9FD28469F
:101ED000FEF7CCFF0090B0F90A10A14200DD44816A
:101EE0006846FFF71FF800F015FE38BDB40000206B
:101EF000F8B50546FFF7C4FD104E3068046ECDB14D
:101F00000CB100F0B3FA06F0B5F92846FEF7AEFFC3
:101F1000009031680D660068FFF7D6F96846FFF754
:101F200001F803F019FE03F067FD00BF00F0F2FDB9
:101F30002046F8BD00F09AFAF8E70000B40000204F
:101F40007CB515460E46040004D115480068046EA1
:101F5000002C24D0FFF794FD2046FEF787FF2DB21A
:101F60000090C58034B2848003F046FD009840693B
:101F700080B1FEF77BFF009A0190B2F908108180D2
:101F8000B2F90A20C28011B10AB10480458001A8CB
:101F9000FEF7C8FF6846FEF7C5FF00F0BBFD7CBD3D
:101FA000B400002001490A4600F002B801F0FFFF2A
:101FB0007FB515460C4606002DD0FFF761FD304673
:101FC000FEF754FF40F6FF710190CC4203D1B0F907
:101FD0000440B0F906500289611E1144ADF8084072
:101FE000ADF80C104189681E0844ADF80E00ADF83C
:101FF0000A5001A8FEF796FF02A807F009F906E0CB
:102000002A462146304600F049F907F0C3F8002877
:10201000F6D100F07FFD7FBD2DE9FF4FDFF8E8B07E
:1020200083B01C46DBF80010DDE9106092464FF0EB
:1020300000084B7C42461299FFF708F9050060D072
:1020400028698068804703F02FFF81460AFB09F169
:10205000C91DCF08FEF744FFF10705D1C11700EBFA
:102060009170801000EB4000002C09DC1FB1183883
:10207000B0FBF7F000E000206442A04200DC044620
:10208000F00707D10090DDE903012346524600F036
:10209000AFFC8046002C03DC2846FFF713F930E044
:1020A00004FB07F01830F10702D0FEF7EBFD01E06A
:1020B000FEF7F7FD06001CD0FEF7D8FE0190056084
:1020C000039981800499C180A0F808A04481C0F8D8
:1020D0001480C0E9037901A8FEF724FF1298AE60CE
:1020E0002861DBF80000407CA861304607B0BDE8FD
:1020F000F08F2846FFF7E6F8B8F1000001D0FEF7B0
:10210000EFFD0020F2E70000B40000202DE9F74FBA
:102110008EB0144689460E98FEF7A8FE0990B0F9D5
:1021200008B0B0F90A600068006940680C9009A81E
:10213000FEF7F8FE564D574F2868407C57F82000B0
:10214000C1688A6A082190470790182801D3202087
:1021500007902868407C57F820000069069003C863
:102160000B904D48814201D0012000E000200A90F0
:10217000002000F011FD00287DD1286809EB0B013B
:10218000B0F90C20891A491E002902DDABEB0105CC
:1021900000E05D46B0F90810494505DDA1EB0901F5
:1021A00089446D1A089101E000210891002D6BDD32
:1021B000B0F90E20A119891A491E002902DDA6EBEB
:1021C000010800E0B046B0F90A00A04204DD061B99
:1021D0003444A8EB060800E00026B8F1000F53DDF8
:1021E000089801900DA95F46DDF830A00E98009187
:1021F000FFF723FE774300EB870101982B4601EBA5
:10220000800200994846CDE900A1214600F052FF26
:102210000090002838D00A98E8B1DDE90632294656
:10222000009800F069FDB0B90698009FDA46D0F832
:1022300010C0BCF1000F05D004235A463946384679
:10224000E04708E00B993868884701C7AAF1010008
:102250005FEA000AF6D100990020079ACDE9030150
:10226000059001200090CDE9010221460346641C3F
:102270002A46484600E007E002F07CFDA8F1010094
:10228000761C5FEA0008ABD111B0BDE8F08F00000A
:10229000B4000020CC0000205F520008F8B51546BD
:1022A0000E460746FEF7E2FD009000681621C06862
:1022B000426A0020904704466846FEF733FE002C31
:1022C00003D02A4631463846A047F8BDF8B5164631
:1022D0000F46050012D0FEF7C9FD0090446968461C
:1022E000FEF720FE2846FFF78FFD0346082800DD95
:1022F0002CB13246394628460DF076F8F8BD324604
:10230000394628460DF010FAF8BD10B5002821D046
:1023100009B30AB3B1F90040B2F900309C4200DAC7
:1023200023460380B1F90240B2F902309C4200DA40
:1023300023464380B1F90440B2F904309C4200DDE9
:1023400023468380B1F90610B2F90620914200DCE1
:102350001146C18010BD11460A680260496841609B
:1023600010BD00280BD003880B44038083881944D8
:102370008180418811444180C1881144C1807047E7
:1023800070B50025FFF77CFB094CD4E900208242A0
:102390000AD0D2E9005610460BF08CF82060314686
:1023A000284606F079FB012500F0B4FB284670BDF5
:1023B000100200202DE9FC41154DDDE908742D685F
:1023C000B5F90860864200DD3046B5F90C609642EA
:1023D00000DA3246824219DBB5F90A608E4200DD2E
:1023E0003146B5F90E509D4200DA2B468B420DDB8B
:1023F00000E02C46E5682D6825B1042D02D0256843
:10240000002DF6D1CDE9007403F060F9BDE8FC8140
:10241000B4000020B0F90220B1F906309A4213DC72
:10242000B1F90220B0F906309A420DDCB0F9002073
:10243000B1F904309A4207DCB1F90010B0F9040098
:10244000814201DC012070470020704701460248AC
:1024500070220068FDF7D4BEB4000020024970224B
:102460000968FDF7CDBE0000B400002010B5FFF7ED
:1024700007FB03F077FA03F06FFB05F0A7FDBDE85B
:10248000104000F047BB000070B50B4D04462868B3
:10249000467CFFF7F5FA022C09D22046FEF77CFFB6
:1024A00028B128684474FFF7E1FF0448046000F095
:1024B00031FB304670BD0000B400002078010020E0
:1024C00010B50446FFF7DCFA204603F06BFABDE8CE
:1024D000104000F01FBB10B50446FFF7D1FA2046AC
:1024E00003F098FABDE8104000F014BB0149886081
:1024F00070470000A800002010B50446FFF7C0FA9E
:10250000204603F0E1FA044600F004FB204610BD2B
:1025100070B50446FFF7B4FA04480068C56904B111
:10252000C46100F0F7FA284670BD0000B400002036
:1025300070B50546FFF7A4FA03480068847E8576E7
:1025400000F0E8FA204670BDB400002070B50C46DB
:102550000546FFF795FA0948224605800848048099
:1025600008480068417C084850F82100C1680B6A9F
:1025700029469847BDE8704000F0CCBAF40000202E
:10258000F6000020B4000020CC00002070B5054605
:10259000FFF776FA03480068047E057600F0BAFA81
:1025A000204670BDB400002070B50446FFF768FAFD
:1025B00004480068B0F92C50848500F0ABFA284636
:1025C00070BD0000B400002070B50446FFF758FA53
:1025D00004480068B0F92A50448500F09BFA284668
:1025E00070BD0000B400002002480068002800D040
:1025F000004770473C02002002498A6802B988609F
:10260000FFF7F2BF100200202DE9FC419846164664
:102610000D460746FFF734FA1C20FEF742FB040084
:102620002DD01C491A4808602046FEF71FFC009078
:1026300015B9FFF784F9054600980760C0E90465FD
:10264000A0F80C806846FEF76DFC20460BF0A8F958
:10265000114DA86840B90120A86005F10C010F4890
:102660000860084601F0AEF82046FEF7FFFB019037
:10267000296849B181602C6001A8FEF753FC00F085
:1026800049FA2046BDE8FC8100212C608160F3E717
:10269000C9260008D8000020B802002001E0000888
:1026A00010B504000ED0FFF7EBF920460CF072F8DD
:1026B00020460CF073FD2046FEF712FBBDE81040EB
:1026C00000F028BA10BD00002DE9F04188B00025C7
:1026D000FFF7D6F9184C676825E000BFFFF72FF920
:1026E00006466068FEF7C2FB01904169891B00291C
:1026F00015DC616802960491016903914668666081
:10270000D0F8008001A8FEF70DFC02A841468847DA
:1027100066B160680125B84205D1002506E001A830
:10272000FEF700FC02E060680028D7D100F0F2F963
:1027300008B02846BDE8F081B802002038B50C4644
:10274000050011D0FFF79CF92846FEF78FFB00909B
:102750008089204201D0012400E000246846FEF771
:10276000E1FB00F0D7F900E00124204638BD38B580
:10277000040017D0FFF784F92046FEF777FB00909E
:10278000FFF7DDF80146009882691144416168460F
:10279000FEF7C8FB20460CF001FD20460BF000F9C7
:1027A00000F0B8F938BD38B50C4605000BD0FFF77E
:1027B00067F92846FEF75AFB009084616846FEF7E9
:1027C000B1FB00F0A7F938BD38B5054600202860F8
:1027D0000648046844B12046FEF748FB00900069B3
:1027E00028606846FEF79EFB204638BDB8020020F0
:1027F00038B504004FF000000D46086011D02046A7
:10280000FEF734FB0090846844B16846FEF78AFB0B
:102810002046FEF72BFB0090006928606846FEF713
:1028200081FB204638BD000070B50C460546FFF719
:1028300027F9054821460068C268284690470446A3
:1028400000F068F9204670BDB800002010B50446BD
:10285000FFF716F9044800680168204688470446D7
:1028600000F058F9204610BDB800002010B504460D
:10287000FFF706F904480068416820468847044687
:1028800000F048F9204610BDB80000200149096851
:1028900089680847B80000202DE9F041084E044639
:1028A00005683068016828468847074630684168EF
:1028B00028468847284420603846BDE8F08100005B
:1028C000B80000202DE9F04100250E4680462C4638
:1028D000064F06E0396808EB04004968884704445D
:1028E0006D1CA642F6DC2846BDE8F081B800002049
:1028F0002DE9F0410C4606460025064F05E03868F4
:1029000041683046884706440544641EF7D228468D
:10291000BDE8F081B80000202DE9F0411E46069C7C
:102920001746884605463A46A8687F1C3346D0F8C5
:1029300004C041462846E047641EF4D1BDE8F0815A
:1029400070B5B0F90040091BB0F904408C422CDD91
:1029500000F11404B0F902500069521B02FB004060
:10296000CA1800EBE104521ED010B0EBE10501F0F3
:1029700007034FF0FF0102F0070221FA03F0C2F152
:10298000070201FA02F1CEB221780FD001436D1E89
:1029900004F8011B002D05DDFF2229462046FDF726
:1029A0004FFC2C4420783043207070BD30400143F0
:1029B000217070BD10B5B0F90030B0F90240C91AED
:1029C00000F114030069121B02FB003000EBE10070
:1029D00001F0070302788021D9400A43027010BD3C
:1029E000B0F90610026951431430FDF730BC000005
:1029F0002DE9F843804602F10F000011470003FB68
:102A000007F01C46154689461430FEF74AF90600C1
:102A100018D0FFF735F83046FEF728FA0090A0F8F6
:102A20000080A0F802908580C48007498160012160
:102A3000818107616846FEF775FA00F06BF8304651
:102A4000BDE8F8830020FBE77C3C010870B5B0F9D5
:102A50000660B0F904400B6800F1140596421BDDD6
:102A60000069A34202FB005000EBE30214DA641E8B
:102A7000E010A0EBE30512F8010B03F00704A040FF
:102A8000C4B206E045B1083312F8014B23F0070346
:102A90006D1E002CF6D004E0002070BD6006040E10
:102AA0005B1C2006FAD5FF2C07D0184602E064060E
:102AB000240E401C6606FAD400E0D81DC443640707
:102AC00005D006E012F8014BFF2C09D108306D1E2D
:102AD000F8D5C01A401C0B6070BD6206140E401C75
:102AE0002206FAD4F5E738B50546FEF7C9FF2846B1
:102AF000FEF7BCF900908189491E0CB284816846BA
:102B0000FEF710FA14B92846FEF7EAF800F002F8CA
:102B100038BD00000348C168491EC16001D100F002
:102B200035B870472002002010B54FF4A05104487A
:102B3000FEF7CEF8BDE810400248FFF7D7BC000012
:102B40003C030020281B01080DF022BE70470DF049
:102B500087BA0EF089BA70477CB5002468460094A5
:102B60000DF0F4F9044D0121286001A801940DF045
:102B70004DFA68607CBD00000000002002484FF064
:102B8000FF3100680DF00EBA000000200148006817
:102B90000DF0E0B9000000200EB508B102AA00E077
:102BA0000022002301A9684600F00EFC0EBD0000C3
:102BB000074910B50C7818B101200870801E03E099
:102BC000002008706FF07F4002F07CF8204610BDB6
:102BD000EE00002010B5082A0EDC0346012A18D0AA
:102BE000022A56D0042A76D010F8042B03F8012BC1
:102BF000491EF9D1012010BD102A08DC4FEA00025D
:102C000030F8043B22F8023B491EF9D1F2E70020DC
:102C100010BD10F8042BD207120E491E34D010F844
:102C2000044B491E04F0010442EA84122CD010F82F
:102C3000044B491E04F0010442EA441224D010F867
:102C4000044B491E04F0010442EA04121CD010F89F
:102C5000044B491E04F0010442EAC40214D010F8E7
:102C6000044B491E04F0010442EA84020CD010F81F
:102C7000044B491E04F0010442EA440204D010F857
:102C8000044B04F00104224303F8012B0029C0D1B6
:102C9000B0E710F8042B9207120E491E15D010F859
:102CA000044B491E04F0030442EA04120DD010F84C
:102CB000044B491E04F0030442EA840205D010F8D4
:102CC000044B04F003042243491E03F8012B00299E
:102CD000DFD18FE7FFE710F8042B1207120E491E11
:102CE00005D010F8044B04F00F042243491E03F8EA
:102CF000012B0029EFD17DE738B50024009400F0C6
:102D00001DF838BD0B4810B58169002910D101218B
:102D10008161FFF709FFFDF773FF02F06FFF0549BF
:102D200005481C310860BDE81040084600F04ABD67
:102D300010BD0000A800002051DF00082DE9F0417F
:102D40000D460699044601B901461F68082A09DCA8
:102D50000E46012A1AD0022A5BD0042A7DD0082A06
:102D600013D18DE0102A07DCD3F810C00E46BCF159
:102D7000000F04D0022389E00020BDE8F08101CCDF
:102D8000B84726F8020B6D1EF9D189E001CCB8478F
:102D9000C0074FEA10686D1E36D001CCB84748EA2C
:102DA000801000F0FF086D1E2ED001CCB84748EA15
:102DB000401000F0FF086D1E26D001CCB84748EA4D
:102DC000001000F0FF086D1E1ED001CCB84748EA85
:102DD000C00000F0FF086D1E16D001CCB84748EACD
:102DE000800000F0FF086D1E0ED001CCB84748EA05
:102DF000400000F0FF086D1E06D001CCB84740EA45
:102E0000080000F0FF086D1E06F8018B002DBDD1F3
:102E100046E001CCB84780074FEA10686D1E16D017
:102E200001CCB84748EA001000F0FF086D1E0ED034
:102E300001CCB84748EA800000F0FF086D1E06D0BC
:102E400001CCB84740EA080000F0FF086D1E06F804
:102E5000018B002DDDD123E0FFE701CCB84700074F
:102E60004FEA10686D1E06D001CCB84740EA080052
:102E700000F0FF086D1E06F8018B002DEDD10FE06C
:102E8000D3F810C0BCF1000F04D001232A4620461D
:102E9000E04705E001CCB84706F8010B6D1EF9D1FB
:102EA00001206AE77CB5064628480D46006868B1EF
:102EB000002006F0ADF906E06A462946304607F0E4
:102EC00099FC06F067F90028F6D17CBD10680090E7
:102ED0001F4C506801902268BDF8000032F84C1F6A
:102EE0000844ADF80000BDF8020091880844ADF830
:102EF0000200BDF8040011880844ADF80400BDF8D4
:102F0000060091880844ADF80600684606F080F98E
:102F10000EE000BF2068BDF800106A464184BDF88D
:102F2000021081842946304607F064FC06F032F92D
:102F30000028EFD1206830F8221F428D891A0180C5
:102F40004188C28D891A41807CBD0000F0000020BC
:102F5000B40000202DE9FF4F85B09A4690460D46FB
:102F6000FEF7BEFC4FF00009DDF814B006464C46F3
:102F700025B1286800906868019002E06846FEF775
:102F80009DFC18F00C0F02D05546002713E0BDF948
:102F900002402DE029467F1C059800F0A7FA014663
:102FA0006D1A0598FFF7A4FC05990844059005A83B
:102FB00000F0E0FA08B9002DECD108F00C0004286C
:102FC00004D0082802D00C2812D105E0BDF9060073
:102FD00007FB1604641C0BE0BDF90600BDF90210E6
:102FE000401A07FB1600401C00EBD07001EB600498
:102FF0005546CDF814B043E02946059800F076FA1E
:1030000007460146ED1B059800F046FA18F003014B
:103010000ED0012939D002290DD1BDF90410BDF916
:103020000020891A091A01EBD17102EB610101E05C
:10303000BDF900108946174A401E484412683946B7
:10304000A2F822909484ADF80C00A019401EADF8AF
:103050000890ADF80E00ADF80A4002AA0598FFF7F7
:1030600021FF39460598FFF743FC05990844059070
:10307000FEF736FC044405A800F07CFA002801D1D4
:10308000002DB9D109B0BDE8F08FBDF90410091ABF
:10309000491CCFE7B400002049B1002802DAA0EBB8
:1030A000610001E000EB610090FBF1F0704700204F
:1030B000704700002DE9FF4F8DB00020DDF86CA0B7
:1030C000164600901D4604460246CAF8000008ABAA
:1030D00003A902A800F078F918B1002011B0BDE8EA
:1030E000F08F0898854200DD0546614F0B956149D8
:1030F0003868407C51F82010049109690691FEF768
:10310000A1FB05903868407CFEF72AFC5A498146AD
:10311000884204D05949894501D0012000E00020AF
:103120000A9001CE1A9988478346000E079077D0FF
:10313000009870BB0D9800EB04084D480068B0F98A
:103140000800404503DDA0EB0807804600E00027AB
:103150000298049900EB840000EB8700CDE90001A0
:103160000B990D98421809920E9B40461946521E23
:10317000FFF720F901200090059818280ADA029834
:10318000DDE9052300EB840000EB8700E91B00F07C
:1031900079F812E00A9880B1029800EB840000EB05
:1031A00087070998A0EB080849463868884701C78F
:1031B000A8F101005FEA0008F6D13148C06980B388
:1031C000DDE9020700EB840007EB8402CDE902028F
:1031D0002B4C361F3046E4692B460299A047FF214D
:1031E0003068B1EB106F02D10298006804E0029AD7
:1031F0001268B1EB126F01D1039A1060029806F1C8
:103200000406001D02900398001D03906D1EE7D177
:103210000397DAF8000040F00101CAF8001020E03E
:1032200021E0FFE70798FF2811D0C0F1FF020298C4
:1032300050F82410584600F061FA039941F8240030
:10324000DAF8000040F00101CAF8001005E0029829
:10325000039950F8240041F82400641C6D1E7FF48B
:1032600060AF03983AE7039941F824B0E8E700001B
:10327000B4000020CC0000205F5200085D5200081E
:10328000900200202DE9F05F0C1E16DD5E680146FD
:1032900000EB8405082A12DC611E012A26D0022ACE
:1032A00047D0042A6AD0082A07D1071917F8010D58
:1032B000B04745F8040D641EF8D1BDE8F09F102A10
:1032C000FBDC5F693FB12246BC46BDE8F04F0223FC
:1032D0005DF804EB604701EB440700BF37F8020DCF
:1032E000B04745F8040D641EF8D1E6E700EBE100B5
:1032F00001F0070710F801A98146802020FA07F89D
:10330000B5F104050AEA0800C7F10701C840B04753
:1033100045F804093FB14FEA48604FEA10687F1E44
:10332000641EEFD1C9E719F801A907274FF001087A
:10333000F6E700EBA10001F0030710F801A98146B0
:103340007900C02020FA01F84FF0060BB5F1040512
:103350000AEA0800ABEB4701C840B04745F804094A
:103360003FB14FEA88604FEA10687F1E641EEFD1BC
:10337000A3E7032719F801A9B846F7E700EB6100B6
:10338000012710F801A9A7438146B900F02020FACF
:1033900001F84FF0040B2D1F0AEA0800ABEB870180
:1033A000C840B04745F804093FB14FEA08704FEAFA
:1033B00010687F1E641EEFD17FE719F801A901276D
:1033C0004FF00F08F6E700002DE9F047224C0646C3
:1033D0001F46A06990468946002540B90120A0619A
:1033E00004F120011D480860084600F0EBF960690F
:1033F00030B91B480068606110B901F0B6FE606129
:1034000007B138604EB1A06830B960698000FDF73F
:103410009FFCA06000B901253060B9F1000F0AD00F
:10342000E06830B960698000FDF792FCE06000B9A7
:103430000125C9F80000B8F1000F0AD0206930B9A1
:1034400060698000FDF784FC206100B90125C8F89F
:1034500000002846BDE8F08790020020D9DF000870
:10346000E400002013460A461946014B5B681847E2
:10347000E001002013460A461946014B1B68184715
:10348000E001002003480068C169087EC97E484306
:1034900070470000B400002073B5124A01A90098DB
:1034A0001268904700240090C8B10F4900250968B0
:1034B000C969496959B10A684AB1019990477CBD07
:1034C0006846FFF7E9F90546FEF7D2F9044401988A
:1034D000401E0190F4D5284600F040F804442046F0
:1034E0007CBD00000C020020B400002073B50D4626
:1034F0000098002490B10A490968C969496959B11D
:103500004A684AB1294690477CBD6846FFF7C4F92E
:1035100020B10A2802D0641CAC42F6DB20467CBDF8
:10352000B400002031B50024009808B905E0641CFF
:103530006846FFF7B1F90028F9D1204638BD0000F0
:10354000044AB2F9002002600348B0F900000860A4
:1035500070470000F4000020F600002038B5002479
:1035600069460094FEF796F90099814200DD0C1A35
:10357000204638BD016811F8012B12B10A2A02D089
:1035800002E001207047016000207047B0F9003070
:10359000B1F90020934200DA0280B0F90230B1F9AB
:1035A0000220934200DA4280B0F90430B1F90420DD
:1035B000934200DD8280B0F90620B1F906108A42FC
:1035C00000DDC180704770B5B1F90040B2F900303C
:1035D0009C4200DD23460380B1F90250B2F902405B
:1035E000A54200DD2C464480B1F90460B2F90450D4
:1035F000AE4200DA35468580B1F90610B2F90620F0
:10360000914200DB1146C1809D4201DBA14201DAFB
:10361000002070BD012070BD014602480068407C5A
:1036200000F002B8B40000202DE9F84301268946D5
:10363000044602285DDA304F7A6802B190472E4D79
:103640005FEA090005F1100532D0012803D0B9F175
:10365000020F4ED118E055F8240088B92046FDF736
:103660009BFE009018B3C0680D21426A68469047DF
:1036700002003ED049460098904755F824000026A5
:10368000401C45F8240034E02046FDF785FE0090FC
:1036900068B1C0680D21426A68469047040028D08E
:1036A000386800B1804749460098A047002620E0CE
:1036B00055F82400A846012812D12046FDF76CFEDB
:1036C000009068B1C0680D21426A684690470500C5
:1036D00006D0386800B1804749460098A8470026C0
:1036E00058F8241009B1012200E00022891A48F894
:1036F00024103046BDE8F883EC01002070B5FF23AC
:10370000B3EB116F29D0C3B200F47F4500F47F04FE
:10371000060E5343554354435643C2F1FF00CAB209
:1037200002FB003201F47F4303FB005301F47F05E9
:1037300005FB0044090E01FB0065C2F307204FF4AE
:103740007F4101EA1322090201EA14214FF07F436D
:10375000104303EA05430843184370BD2DE9F04FB9
:103760000646DDE90CB915460C4600208046584552
:1037700019D20B9F4FF0FF0A01CE08CCAAEB1062C2
:1037800002FB09F2B2FBFAF1CAB21946FFF7B6FF23
:1037900020F07F4001C57F1EEED1099804EB800424
:1037A00008F10100E2E7BDE8F08F0B8813440380C5
:1037B0008B889B1A83804B8813444380C988891A5D
:1037C000C180704702494A69426048617047000001
:1037D000A800002010B5044600F009F80146204674
:1037E000BDE81040FFF784B800230BF0D3BD77B5D8
:1037F00081B015460E466B4601980BF0CBFD044692
:1038000001460198FFF774F801990844019001A856
:10381000FFF742F80A2802D0012D02D012E0641C02
:1038200010E020280ED1FEF723F8054607E02844D3
:10383000009001A8641CFFF72FF8202802D10098FF
:103840008642F4DA04B0204670BD10B502E000F8FC
:10385000011B521E0AB18307F9D1930818D001EB5E
:10386000014402F0030204EB042406E010C01B1F15
:1038700010C040F8084B40F8044C042BF6DA01E085
:1038800010C05B1E002BFBD102E000F8011B521E92
:10389000002AFAD110BD10B5830702D520F8021B0B
:1038A000521E530811D001EB0144042B09DB10C058
:1038B0001B1F10C0042B40F8084B40F8044CF6DAEC
:1038C00001E010C05B1E002BFBD1D20700D00180AD
:1038D00010BD10B5040002D0607910B106E00120DF
:1038E00010BD00202071204600F004F80120607116
:1038F000002010BD08B500680649884208D1064876
:10390000416941F040014161406900F04000009090
:1039100008BD0000003002400010024001680A6843
:1039200022F00E020A6001680A6822F001020A60B1
:1039300090F84020C36B012101FA02F25A6080F82E
:103940002110002180F82010084670472DE9F05F13
:1039500090F821100024022903D00421816301245E
:1039600085E001680A6822F00E020A6001680A68B0
:1039700022F001020A603F4E3E4FB215DFF8F4C05C
:10398000DFF8F090DFF8ECA0DFF8E8B0DFF8E4E073
:103990000168783F13011502ACF1640CA9F15009DC
:1039A000AAF13C0AABF1280BAEF1140E4FF48018CB
:1039B000B14227D9B9420ED0614512D049451DD038
:1039C000514518D0594518D0714501D1424615E0EE
:1039D000294EB14201D1012210E0274E1436B142E6
:1039E00001D110220AE0244E2836B14206D0224AE4
:1039F0003C32914201D11A4600E02A461E49091F75
:103A00000A602BE0B94213D0614517D0494522D056
:103A100051451DD059451DD0714501D142461AE08E
:103A2000B14202D14FF0807215E0134EB14201D184
:103A3000012210E0104E1436B14201D110220AE0EA
:103A40000D4E2836B14206D00B4A3C32914201D18C
:103A50001A4600E02A46074980394A60012180F869
:103A60002110002180F82010416B01B188472046C9
:103A7000BDE8F09F80000240080402402DE9F05F9D
:103A8000C16B0A6801680B68046C4FF0040808FAFF
:103A900004F8844D844E854FDFF814C2DFF8149289
:103AA000DFF814A2DFF814B2DFF814E218EA020F0C
:103AB00065D05FEA437862D50A68920603D40A6843
:103AC00022F004020A60DFF8F0814FF4806201689E
:103AD00008F1140813011402414524D9A9420DD05C
:103AE000B1420FD0B9421AD0614515D0494515D021
:103AF000514501D1120312E0594501D104220EE0D3
:103B0000714501D140220AE06D4D1435A94206D01D
:103B10006B4A2832914201D11A4600E02246674999
:103B2000091F0A6029E0A94213D0B14215D0B94259
:103B300020D061451BD049451BD0514502D14FF4DF
:103B4000800217E0414502D14FF0806212E05945F2
:103B500001D104220EE0714501D140220AE0584D06
:103B60001435A94206D0564A2832914201D11A464C
:103B700000E022464B4908394A60C16A71E04FF0C3
:103B8000020808FA04F818EA020F70D05FEA837896
:103B90006DD50A68920606D40A6822F00A020A6005
:103BA000012180F82110DFF810814FF400720168C4
:103BB00008F1140813011402414524D9A9420DD07B
:103BC000B1420FD0B9421AD0614515D0494515D040
:103BD000514501D1120312E0594501D102220EE0F4
:103BE000714501D120220AE0354D1435A94206D095
:103BF000334A2832914201D11A4600E022462F4929
:103C0000091F0A6029E0A94213D0B14215D0B94278
:103C100020D061451BD049451BD0514502D14FF4FE
:103C2000001217E0414502D14FF0007212E05945F1
:103C300001D102220EE0714501D120220AE0204D7F
:103C40001435A94206D01E4A2832914201D11A46A3
:103C500000E02246134908394A60002180F820100C
:103C6000816A00291CD0BDE8F05F0847FFE70825FE
:103C7000A540154214D01A0712D50A6822F00E0288
:103C80000A6090F84020C36B012101FA02F25A60E9
:103C9000816380F82110002180F82010016BE0E79B
:103CA000BDE8F09F080002401C00024030000240C6
:103CB00044000240580002406C00024008040240E8
:103CC0001C04024030B560B11A4B026814219A42BC
:103CD00009D2194B1344B3FBF1F189000164174970
:103CE0000AE0012030BD134B5B421344B3FBF1F1FA
:103CF000890001640F490839C163022180F821104D
:103D0000136843F6F0718B43F0E901142143D0E9C5
:103D100002452C43214304692143446921438469BA
:103D20002143194311600021416301224277017749
:103D3000084630BD08040240F8FFFDBF0000024005
:103D400070B5044690F82000002501280CD0012011
:103D500084F8200094F821600020012E06D084F819
:103D600020000225284670BD022070BD022684F87E
:103D70002160A0632068066826F0010606602046E0
:103D8000FCF7CAFBE06A00282068016802D041F015
:103D90000E0106E021F0040101602068016841F095
:103DA0000A0101602068016841F001010160D9E762
:103DB00070B5044600F00CF90546601C02D00448BA
:103DC0000078044400F004F9401BA042FAD370BD0F
:103DD000300000202DE9F84FDFF8B8A100220AF1E9
:103DE000040B144601274FF00F090BF1040E00BF1E
:103DF0000B6807FA04F52B40AB4274D1DFF898C189
:103E00004E68A6EB0C0866452BD00DDC032E34D093
:103E100005DC36B3012E19D0022E2FD11BE0112E56
:103E200016D0122E2AD119E0B8F5881F19D006DC59
:103E3000B8F5803F15D0B8F5801F1FD111E0B8F557
:103E4000001F0ED0B8F5041F18D10AE0CA6815E0AB
:103E5000CA68121D12E0CA6808320FE0CA680C3244
:103E60000CE08A682AB1012A4FF0080203D04561AC
:103E700004E0042202E0056100E00022FF2B01D8EB
:103E8000064601E000F104064FEA840501D9A5F1D8
:103E90002005D6F800C009FA05F82CEA080C02FA49
:103EA00005F54CEA050CC6F800C04D68ED006AD572
:103EB0003A4DAE6946F00106AE61AD6924F00306E5
:103EC00005F001050095364D06EB050CDCF80850B1
:103ED000A6074FEA167809FA08F6B543314EB04204
:103EE00002D100261AE04EE02F4EB04201D1012649
:103EF00014E02E4EB04201D102260FE02C4EB0420B
:103F000001D103260AE02B4EB04201D1042605E080
:103F1000294EB04201D1052600E0062606FA08F631
:103F20002E43CCF808604D68DAF80060ED03554682
:103F300001D51E4300E09E432E604D68AD0305D5BC
:103F4000DBF800601E43CBF8006004E0DBF80050B3
:103F50009D43CBF800504D68DEF80060ED027546D9
:103F600001D51E4300E09E432E604D68AD0205D58D
:103F7000084D0C352E681E432E6004E0054E0C36AD
:103F800035689D433560641C102CFFF431AFBDE8EB
:103F9000F88F0000000401400000111000100240E2
:103FA0000000014000080140000C014000100140E9
:103FB0000014014000180140001C014080680840C6
:103FC00000D0012070470AB1016170470904FBE786
:103FD0000148806870470000300000200248816876
:103FE000027811448160704730000020074810B506
:103FF000016841F010010160032000F093F80020F7
:1040000000F006F800F03EF8002010BD002002404D
:1040100000B5014687B000222C2000F063F82C2068
:1040200000F054F81348816941F4005181618069BE
:1040300005A900F400500690684600F03BF900F036
:1040400069F90D490D4AB0FBF1F10D48491E0260B6
:10405000416040F2E7320021C0E90321816000F0B5
:104060009DFB10B1012007B000BD054800F0B2FB78
:10407000F9E700000010024040420F000034014008
:104080005C1800200F4808B5816941F00101816189
:10409000816901F001010091C16941F08051C16164
:1040A000C069002200F0805000900F21901E00F0A7
:1040B00019F80548416821F0E06141F080614160F4
:1040C00008BD0000001002400000014000F01F0287
:1040D000012191404009800000F1E020C0F800116A
:1040E00070470000F0B40E4B1B680C46C3F302236C
:1040F000C3F10705042D00D90425191D072901D294
:10410000002300E0DB1E012606FA05F1491E2140CE
:1041100099409E40761E16403143F0BC02F09ABF93
:104120000CED00E0064900F0070208684FF6FF03B7
:10413000184040EA0220034A10430860704700001C
:104140000CED00E00000FA052DE9F047DFF854819E
:1041500005460E46D8F8000000F00700B0420CD229
:10416000D8F8001021F007013143C8F80010D8F842
:10417000000000F00700B0426FD128684A4C810768
:1041800012D5400703D5606840F4E060606028788D
:10419000000703D5606840F4605060606068A968FB
:1041A00020F0F000084360602878C00744D06868B9
:1041B000012816D02168022816D0890700294CDA78
:1041C000616821F0030101436160FFF701FF696845
:1041D000074641F2883001290ED00229814618D0C5
:1041E00026E021688903E9E78901E7E7FFF7F0FEA8
:1041F000C11B494501D918E081466068C0F38100C0
:104200000128F3D118E000BFFFF7E2FEC11B4945CA
:104210000BD86068C0F381000228F5D10CE000BF24
:10422000FFF7D6FEC11B494502D90320BDE8F08740
:10423000606810F00C0FF3D1D8F80010404601F080
:104240000701B1420BD9016821F007013143016038
:10425000006800F00700B04201D00120E6E72878AE
:10426000400705D56068E96820F4E06008436060B5
:104270002878000706D56068296920F4605040EA74
:10428000C100606000F056F86168084AC1F303118C
:10429000515CC840064908600020FFF7B9FE0020C5
:1042A000C4E700000020024000100240881301080B
:1042B0003C0000200F2202600C4A536803F0030305
:1042C0004360536803F0F0038360536803F4E063D2
:1042D000C36052684FF4E06303EAD202026104480B
:1042E000006800F0070008607047000000100240FE
:1042F000002002400448054900684968044AC1F3A7
:104300000221515CC84070473C0000200010024070
:10431000981301080448054900684968044AC1F334
:10432000C221515CC84070473C0000200010024090
:104330009813010812A185B00FC98DE80F0014A0D1
:10434000144A006804905168134801F00C03042BD0
:1043500010D0082B0ED1C1F38343C9031DF803000D
:104360000AD5516804AAC1F34041515C0A4A50433E
:10437000B0FBF1F005B0704708494843FAE7000088
:1043800002030405060708090A0B0C0D0E0F101096
:10439000010200000010024000127A0000093D00F6
:1043A0002DE9F84F04460078B94DC00748D0686839
:1043B000C0F38100012807D06868C0F3810002289B
:1043C00009D16868C00306D52868800338D56068BD
:1043D00000286FD034E06068B0F5803F0BD010B19A
:1043E000B0F5A02F11D0286820F48030286028680C
:1043F00020F4802002E0286840F480302860606863
:1044000088B1FFF7E5FD064609E0286840F4802002
:104410002860F0E7FFF7DCFD801B642875D828686A
:104420008003F7D50CE0FFF7D3FD064605E000BF9B
:10443000FFF7CEFD801B6428F0D828688003F7D4EE
:104440002078944E80074FF001094FF000083BD5CB
:10445000686810F00C0F07D06868C0F3810002286C
:1044600009D16868C00306D42868800714D520697C
:1044700001281FD110E02069B0B1C6F80090FFF705
:10448000A7FD074605E000BFFFF7A2FDC01B0228FD
:10449000C4D828688007F7D52868616920F0F8003B
:1044A00040EAC10028600FE0C6F80080FFF790FDE9
:1044B000074606E0E9E000BFFFF78AFDC01B0228BF
:1044C00023D828688007F7D4207800072CD57248B5
:1044D000A169D9B1C0F80090FFF77AFD074604E062
:1044E000FFF776FDC01B02280FD8686A8007F7D552
:1044F0006A484FF4FA510068B0FBF1F0009000BF39
:104500000098411E0091FAD20EE080E0C0F80080D1
:10451000FFF75EFD074604E0FFF75AFDC01B0228C7
:1045200075D8686A8007F7D42078400760D5E869B5
:104530000027C00008D4E86940F08050E861E869CD
:10454000012700F08050009055480168C90513D438
:104550000168834641F480710160FFF739FD8246AE
:1045600006E000BFFFF734FDA0EB0A0064284ED838
:10457000DBF80000C005F5D5E06801280AD008B1D5
:10458000052813D0286A20F001002862286A20F04C
:10459000040002E0286A40F001002862E06841F26D
:1045A000883B98B1FFF714FD82460BE0286A40F083
:1045B00004002862EEE700BFFFF70AFDA0EB0A0146
:1045C00059455AD8286A8007F6D50CE0FFF700FD58
:1045D000824605E0FFF7FCFCA0EB0A0159454CD8E8
:1045E000286A8007F6D41FB1E86920F08050E8619E
:1045F000E06988B36968C1F38101022945D00228C6
:10460000C6F8608004D0FFF7E3FC044638E034E0ED
:10461000FFF7DEFC074604E0FFF7DAFCC01B0228C8
:104620002BD828688001F7D4206AB0F5803F05D1E7
:104630006868A16820F4003008436860D4E9080184
:104640000843696821F4741108436860C6F86090F3
:10465000FFF7BEFC044606E015E000BFFFF7B8FC1C
:10466000001B022809D828688001F7D50BE000BF9D
:10467000FFF7AEFC001B022802D90320BDE8F88F2B
:1046800028688001F4D40020F8E70120F6E7000054
:104690000010024000004242800442423C000020E0
:1046A0000070004070B5040005D00025A56294F8A4
:1046B000510010B104E0012070BD204600F034F834
:1046C000022084F851002068016821F04001016057
:1046D000D4E901010843D4E9031211430843616995
:1046E0000843218B01F400710843E1690843216A02
:1046F0000843A16A084321680860A069042101EA0F
:104700001040616A0843216848602168E06A0861D6
:104710002068C16921F40061C1616565012084F8E8
:104720005100002070BD000030B585B00024009419
:1047300001940294039400681449884223D11448D8
:10474000816941F480518161816901F48051049152
:10475000816941F00401816180690E4D00F004001F
:104760000490A0200090022001900320039069464D
:104770002846FFF72FFB4020CDE900046946284674
:104780000294FFF727FB05B030BD00000030014068
:1047900000100240000801407047704710B5040047
:1047A00003D094F83D0010B107E0012010BD0020B7
:1047B00084F83C00204600F00CF8022084F83D000C
:1047C000211D206802F074FF012084F83D000020C4
:1047D00010BD70470168CA6842F00102CA600068F3
:1047E000016841F00101016000207047704770B519
:1047F0000446006801694FF00005C943890715D4D4
:10480000C168C943890711D4E91E016101202077DD
:10481000206880698007204602D0FFF7E7FF04E0A8
:1048200000F098F8204600F096F825772068016996
:10483000C943490717D4C168C943490713D46FF066
:1048400004010161022020772068806910F4407F14
:10485000204602D0FFF7CAFF04E000F07BF82046B4
:1048600000F079F8257720680169C943090716D453
:10487000C168C943090712D46FF00801016104201F
:1048800020772068C0698007204602D0FFF7AEFF7E
:1048900004E000F05FF8204600F05DF8257720681E
:1048A0000169C943C90617D4C168C943C90613D4ED
:1048B0006FF010010161082020772068C06910F4B2
:1048C000407F204602D0FFF791FF04E000F042F85D
:1048D000204600F040F8257720680169C943C907E0
:1048E00008D1C168C943C90704D1891E01612046A6
:1048F00000F032F820680169C943090609D4C1688B
:10490000C943090605D46FF0800101612046FFF715
:1049100043FF20680169C943490609D4C168C943F6
:10492000490605D46FF040010161204600F01EF8F1
:1049300020680169C94389060BD4C168C943890647
:1049400007D46FF0200101612046BDE87040FFF7F9
:1049500024BF70BD7047704700680349884201D189
:10496000FFF73CBB7047000000340140704710B5B2
:1049700004460068416994F83920C1F3C011212A26
:104980000BD151B1416921F080014161206B08B127
:10499000FEF7C4FF204602F02FFF2068416994F81B
:1049A0003A20C1F38011222A0BD151B1416921F083
:1049B00040014161606B08B1FEF7B0FF204602F094
:1049C0000DFF002010BD704770B5026804461068E6
:1049D000D168536910F00F0F50D003F0010501F4B6
:1049E000907635435DD0C20705D0CA0503D5E26B8A
:1049F00042F00102E263420705D5DA0703D0E26B19
:104A000042F00202E263820705D5DA0703D0E26BC7
:104A100042F00402E263020705D5DA0703D0E26B35
:104A200042F00802E263E26B002A33D0800604D52C
:104A3000880602D5204602F0E8FE20684069E16B56
:104A4000C0F38010090700D428B3204602F0C6FE48
:104A50002068416949061AD5416921F04001416148
:104A6000606BA0B11B494163606BFEF76FFF0028CC
:104A700010D0606B416BBDE870400847830610D5CD
:104A80008B060ED52046BDE8704002F0BEBE204623
:104A9000FFF799FF70BD2046FFF795FF0020E06308
:104AA00070BD030606D50B0604D52046BDE8704050
:104AB00002F0AEBF4006F3D54806F1D5D1682046D6
:104AC00021F04001D160202184F8391000F0F8F87D
:104AD00070BD00003D77000870B5040004D094F864
:104AE0003900002510B106E0012070BD84F838506F
:104AF000204600F023F8242084F839002068C1689B
:104B000021F40051C160204602F0CAFE206801690C
:104B100021F4904101612068416921F02A0141613D
:104B20002068C16841F40051C160E563202084F829
:104B3000390084F83A00002070BD00002DE9F041F2
:104B400086B0002406460094019402940394006801
:104B50002F49884258D12F48816941F480418161B1
:104B6000816901F480410491816941F0040181610E
:104B70008069294D00F0040004904FF4007000900B
:104B8000022001900320039069462846FFF722F98E
:104B90002815CDE90004694628460294FFF71AF962
:104BA0001F4D1E484FF08008C5E90004C5E90248C2
:104BB0002C614FF440576C61C5E906472846FFF762
:104BC00081F808B1FBF7BEFC75636E62144D1348A3
:104BD0004435143801C51020A5E81101104845F8E6
:104BE000104944306C61C5E90647FFF76BF808B11E
:104BF000FBF7A8FC35630022052125206E62FFF734
:104C000071FA2520FFF762FA06B0BDE8F0810000D6
:104C100000380140001002400008014058000240E6
:104C2000D4170020F8B5044690F83A0020283CD16B
:104C3000C1B3BAB394F83800012836D0012084F803
:104C40003800A162A2850025E563222084F83A009D
:104C5000636B17489862636B1648D862636B16489B
:104C60001863606B134645630846666B216802460D
:104C70003046091DFFF764F820680168416800911B
:104C800084F83850C16841F48071C160206841697E
:104C900041F0010141612068416941F040014161F9
:104CA0000020F8BDFFE70120FBE70220F9E7000044
:104CB00097770008D37700084D7700087047704752
:104CC0007047FEE702490A68086010467047000016
:104CD00034030020F0B50F490646002408884D88AB
:104CE00021464543204600F0A7FE00F06BFF0A492D
:104CF0004FF480774A15DFF824C0802307E00F6166
:104D00004A61CCF800604B610B610A61641CAC42E3
:104D1000F5D3F0BD9C180020001001400C0C0140A0
:104D20000449054A0968497C52F821100969096853
:104D300008470000B4000020CC00002070B40C49EB
:104D4000F0222C242A254FF4A0732B2650B10120E9
:104D500088710B804A800C814D818E8170BC00204F
:104D600000F088BD002088710A804B80F3E70000C6
:104D70009C1800202DE9F04F05468DB07B48DDF8EA
:104D800060901A9C00681E4617464FF0000A78B1E2
:104D90001B9B199ACDF808900593CDE90324DDE912
:104DA0001623CDE90023046833463A46284680E0BE
:104DB000DDE9160201EB060805EB070C1043A8F12C
:104DC0000108ACF1010C012806D0C9F108000590DA
:104DD000002002910990C6E065480268B2F90A30E5
:104DE000581A002806DD361A002E63DD1946199B75
:104DF00000FB0344B2F90E00A8EB0000002802DD1E
:104E0000361A002E56DDB2F90C00ACEB000000287B
:104E100000DD3F1AB2F908300020AB4235DD581BE7
:104E20003F1A4B46B9F1080F26D006DC012B0BD0F8
:104E3000022B11D0042B28D116E0102B1ED0182BDA
:104E40001FD0202B21D11CE020F0070304EBE0044D
:104E50001D4400F0070018E020F0030304EBA00459
:104E60001D4400F0030010E020F0010304EB600497
:104E70001D4400F0010008E0044404E004EB400499
:104E800001E004EB800405440020002F12DD1B9B91
:104E9000DDF864C0CDE90403CDE90069CDE902C4C1
:104EA000527C34483B4650F82200C26854680A4697
:104EB0002946A0470DB0BDE8F08F17990298084425
:104EC0000C902B49401E00900A68B2F90A308342C8
:104ED00041DCB2F90E10029881423CDB4FF0000B2E
:104EE000D84603950A9434E0BBF1000F05D10A9827
:104EF0004FF0080B10F801AB0A900599ABEB090BCA
:104F00003AFA01F00AFA09F101F0FF0A04D118494E
:104F10000968097C890716D415490968C96B0A68AC
:104F20000B921B9A0AB152F8200008601699039858
:104F3000009B4218521E029900F0A8F80C490B98E9
:104F40000968C96B08600399169808F101080844BC
:104F50000390B845C8DB0998401C09900C98029052
:104F6000199804440998B042A7DBA3E7F000002099
:104F7000B4000020CC000020F0B40C4612490968AF
:104F8000B1F90A30A3421CDCB1F90E30A34218DBA0
:104F9000B1F90830834200DD1846B1F90C30934274
:104FA00000DA1A4682420CDB4B7C084951F8235048
:104FB00013462246E9688E6801462846B446F0BC8E
:104FC0006047F0BC70470000B4000020CC00002017
:104FD0000A46174930B40968B1F90A30934225DC12
:104FE000B1F90E30934221DBB1F9083083421DDC68
:104FF000B1F90C30834219DB0B7C0E4CDB0709D076
:10500000497C54F82130D968CC690146A44630BCAB
:1050100018466047CB6B497C1B6854F82140E16817
:105020008D6901462046AC4630BC604730BC7047B5
:10503000B4000020CC000020124B30B41B68B3F940
:10504000084084421CDCB3F90C40844218DBB3F9FD
:105050000A408C4200DD2146B3F90E40944200DA4A
:1050600022468A420CDB5C7C074B53F82440E36801
:10507000DD6813460A4601462046AC4630BC604710
:1050800030BC7047B4000020CC00002038B5134C71
:105090002468B4F90850854200DD2846B4F90C5064
:1050A000954200DA2A46824217DBB4F90A508D4253
:1050B00000DD2946B4F90E509D4200DA2B468B42A2
:1050C0000BDB0093647C064B53F82440E3681D69B6
:1050D00013460A4601462046A84738BDB4000020C2
:1050E000CC000020082107F052BE000002480068F2
:1050F000806B006870470000B40000200248006820
:10510000C06B006870470000B4000020024809210D
:105110000068407C07F03BBEB4000020092107F086
:1051200036BE70B500252C462046FCF735F900B197
:105130006D1C641C022CF7DB284670BD0248006819
:10514000407C00F003B80000B400002010B5FCF76C
:1051500023F9002805D0C168CA6ABDE810400221C1
:10516000104710BD032107F012BE032007F068BFEF
:10517000042107F00CBE0000024801210068407CB9
:1051800007F005BEB4000020014800687047000029
:105190005C020020012107F0FABD012007F050BF9A
:1051A000024802210068407C07F0F1BDB4000020F5
:1051B00001484068704700005C020020022107F0AF
:1051C000E6BD022007F03CBFAFF300802DE9F041BF
:1051D000002809D0876837B10D4E716819B104688D
:1051E000B4F5807F02DD0020BDE8F08130688442A4
:1051F00000DD0446002507E057F82500FFF790FD85
:10520000716841F825006D1CA542F5DB7068EBE77D
:105210004C0200200449054A0968497C52F82110D3
:105220000969496808470000B4000020CC0000204C
:1052300010B5084A084B00F01F01C0F34514C0F335
:10524000C420515C1B5D105C01EB032101EB0040AD
:1052500010BD00007C2701089C270108704770479B
:1052600070B53220FEF7A4FD0121002000F0B0FC53
:105270003220FEF79DFD002000F0F4FAD34C4FF6EB
:10528000FF75FF28A08004D3A84202D0B0F5134FC9
:1052900076D1D32000F084FC00F0F4F900F0F2F9AC
:1052A00000F0F0F905EA0020A08000F0EBF9A188F9
:1052B0000843A0F51341A080413961D0BF2000F020
:1052C0006FFC00F0DFF900F0DDF900F0DBF900F031
:1052D000D9F905EA0020A08000F0D4F9A18808439C
:1052E000A0F5D041A08004394AD0D42000F058FC69
:1052F00000F0C8F900F0C6F900F0C4F905EA002092
:10530000A08000F0BFF9A1880843A0F5A641A080C5
:10531000103935D04FF45A4000F042FC00F0B2F999
:105320004FF45B4000F03CFC00F0ACF905EA0020D3
:10533000A0804FF45C4000F033FC00F0A3F9A1889A
:105340000843A08045F21051B0F5004F7DD088424F
:1053500016D0A12000F024FC00F094F9A08000F009
:1053600091F905EA0020A08000F08CF9A18808439B
:10537000A0F5AE41A080613902D141F66310A08052
:10538000CF2000F00DFC002000F0F8FBC12000F061
:10539000F5FB302000F0F2FBED2000F001FC642072
:1053A00000F0ECFB032000F0E9FB122000F0E6FB2C
:1053B000812000F0E3FBE82000F0F2FB852000F004
:1053C000DDFB102000F0DAFB7A2000F0D7FBCB20C9
:1053D00000F0E6FB392000F0D1FB2C2000F0CEFBE2
:1053E000002000F0CBFB342000F0C8FB022000F0CE
:1053F000C5FBF72000F0D4FB202000F0BFFBEA2023
:1054000000F0CEFB002000F0B9FB002000F0B6FB5E
:10541000C02000F0C5FB1B2000F0B0FBC12000F055
:10542000BFFB012000F0AAFBC52000F0B9FB302033
:1054300000F0A4FB302000F0A1FBC72000F0B0FB7F
:10544000B72000F09BFB362000E0BCE000F0A8FB9A
:10545000482000F093FB3A2000F0A2FB552000F01A
:105460008DFBB12000F09CFB002000F087FB1A2090
:1054700000F084FBB62000F093FB0A2000F07EFBD6
:10548000A22000F07BFBF22000F08AFB002000F05D
:1054900075FB262000F084FB012000F06FFBE0206C
:1054A00000F07EFB0F2000F069FB2A2000F066FB75
:1054B000282000F063FB082000F060FB0E2000F0C5
:1054C0005DFB082000F05AFB542000F057FBA92098
:1054D00000F054FB432000F051FB0A2000F04EFB8B
:1054E0000F2000F04BFB002000F048FB002000F0F4
:1054F00045FB002000F042FB002000F03FFBE120D4
:1055000000F04EFB002000F039FB152000F036FBC8
:10551000172000F033FB072000F030FB112000F0D3
:105520002DFB062000F02AFB2B2000F027FB562045
:1055300000F024FB3C2000F021FB052000F01EFBC6
:10554000102000F01BFB0F2000F018FB3F2000F0A4
:1055500015FB3F2000F012FB0F2000F00FFB2B206B
:1055600000F01EFB002000F009FB002000F006FB0D
:10557000012000F003FB3F2000F000FB2A2000F098
:105580000FFB002000F0FAFA002000F0F7FA0020EC
:1055900000F0F4FAEF2000F0F1FA112000F000FB27
:1055A0007820FEF705FC292000F0FAFA0020FFF72A
:1055B000C5FB012291020648FEF705FD2846BDE81D
:1055C0007040FFF787BBA180DAE600009C1800203E
:1055D0000010014010B50A4C606860B92068800076
:1055E000FBF7B6FB606040B104F1080105480860B4
:1055F0000846FEF7E7F8002010BD012010BD0000AE
:105600004C020020C5DF00082DE9F047FFF789FDB7
:1056100007460024DFF860802AE02046FBF7BCFE46
:1056200028B3D8F8000090F8119044742046FFF792
:1056300059FD082817DC1148114950F82400006969
:10564000884210D02046FFF769FD0646002508E095
:10565000E8B2FFF7DFFD0246E9B2204600F03AFA71
:105660006D1CB542F4DBD8F8001081F81190641C71
:10567000BC42D2DBBDE8F087B4000020CC000020A3
:10568000D832010870B50F4A4FF088301060131DF2
:1056900018600C4C00200C3420600B4990150861F8
:1056A00045004D6140264E61181D00680E6180B2B4
:1056B0000D614FF03331116019604FF6FF712160B9
:1056C00070BD0000000C0140001001402DE9FF4FAB
:1056D00083B01646DDE910408B46C0684769426AD0
:1056E0007AB1012111A8904705000AD00698CDE9AA
:1056F000000433465A4603991198A84707B0BDE8FD
:10570000F08F57480068407CFCF79CF882460828D8
:1057100001DC012005E0BAF1100F01DC022000E0FD
:1057200004208046002596E04046B8F1010F05D0E0
:10573000022871D0B8F1040F25D17CE0BAF1090F2D
:1057400021D2DFE80AF08605213F3F595959590017
:10575000039815E001465A461198B847C5F107016C
:1057600088404FF67F722178EA40114001436D1C5A
:10577000217004EBE50425F00700054109F1010063
:105780008146B042E6DD64E0039817E001465A46E0
:105790001198B8470621A1EB450188406B004FF6F0
:1057A0003F722178DA40114001436D1C217004EBF7
:1057B000A50425F00300054109F101008146B0422E
:1057C000E4DD46E0039813E001465A461198B847D5
:1057D0000421A1EB850188402178AB000F229A407B
:1057E0001140014321702C4485F0010509F10100AD
:1057F0008146B042E8DD2CE0DDF80C9007E0014680
:105800005A461198B847207009F1010944444846A6
:10581000B145F4DD1DE0FFE7DDF80C9007E001463F
:105820005A461198B847208009F101094444484676
:10583000B145F4DD0DE0DDF80C9007E001465A4675
:105840001198B847206009F1010944444846B14520
:10585000F4DD0BF1010B06998B457FF765AF4DE742
:10586000B400002000B500F09BF95DF804EBFFF7F1
:1058700009BF00002DE9F0470021082812D2DFE817
:1058800000F0110406080A0C0E1080210AE04021E5
:1058900008E0C02106E0202104E0602102E0A02110
:1058A00000E0E021362000F093F9DFF8ACA0BAF870
:1058B0000A0000F075F9294C4FF4807727616515CF
:1058C0006561DFF89C804FF000094146C8F8009000
:1058D000802666612661256127616561C8F80090B0
:1058E00066612661256127616561BAF80000401E86
:1058F00002120A6066612661256127616561C1B295
:10590000C8F80010666126612561BAF80C0000F045
:1059100047F927616561C8F80090666126612561D5
:1059200027616561C8F8009066612661256127617D
:105930006561BAF80200401E0212C8F800206661D4
:105940002661256127616561C1B2C8F800106661F2
:1059500026612561BDE8F0879C18002000100140F9
:105960000C0C014010B50D4C0D492068407C51F8DD
:10597000200048B1C16811B10968042901D000684C
:10598000F7E708B1FBF7EEFC20680021016600F1A3
:1059900008014161BDE8104000F02EB8B4000020BD
:1059A000CC000020014909684968084748020020E6
:1059B000044909680A7C520701D5C96B00E0896B6C
:1059C00008607047B40000207CB5094C054620688B
:1059D000417C084850F82100C1680A6B694690472D
:1059E00020686A4629460830FDF7EDFD7CBD0000C1
:1059F000B4000020CC0000200448016804484A7C20
:105A0000083150F82200C268126B1047B400002021
:105A1000CC000020014909680968084748020020B5
:105A2000044909680A7C520701D5896B00E0C96BFB
:105A300008607047B40000202DE9F04FDFF870B027
:105A400082468946BBF80A0000F0AAF8194C4FF4C8
:105A50008077276165156561DFF85C804FEA1A2160
:105A6000C8F800108026666126612561276165619E
:105A70000AF0FF01C8F80010666126612561BBF8D5
:105A80000C0000F08DF8276165614FEA1921C8F814
:105A900000106661266125612761656109F0FF01DB
:105AA000C8F80010666126612561BDE8F08F00002E
:105AB0009C180020001001400C0C0140014AC2E972
:105AC000000170475C0200200149096889680847A5
:105AD00048020020F8B515460E460124FBF75CFC91
